:100000000C9446000C9465000C9465000C946500FB
:100010000C9465000C9465000C9465000C946500CC
:100020000C9465000C9465000C9465000C946500BC
:100030000C9465000C9465000C9465000C946500AC
:100040000C9465000C9465000C9465000C9465009C
:100050000C9465000C9465000C9465000C9465008C
:100060000C9465000C9465000C9465000C9465007C
:100070000C9465000C9465000C9465000C9465006C
:100080000C9465000C9465000C94650011241FBE4F
:10009000CFEFD0E4DEBFCDBF11E0A0E0B1E0E4E9F6
:1000A000F2E000E00BBF02C007900D92A831B1074B
:1000B000D9F721E0A8E1B1E001C01D92AB31B20750
:1000C000E1F70E942B010C9448010C940000CF939F
:1000D000DF9300D01F92CDB7DEB789837B836A831D
:1000E00089818A3031F48A819B81BC018DE00E9434
:1000F000670080EC90E0FC018081882F90E08072A6
:100100009927892BB1F386EC90E02981FC012083AB
:1001100080E090E00F900F900F90DF91CF910895C5
:10012000CF93DF93CDB7DEB780911801909119017D
:1001300081309105A1F08130910530F08230910538
:1001400031F1039759F142C088E290E0FC0110823E
:1001500081E090E090931901809318013BC080E208
:1001600090E0FC018081882F90E081709927892B95
:1001700039F482E090E090931901809318012AC02D
:1001800081E090E0909319018093180123C083E0EF
:1001900090E090931901809318011CC080E290E0D8
:1001A000FC018081882F90E081709927892B39F498
:1001B00083E090E090931901809318010BC081E0D7
:1001C00090E0909319018093180104C010921901D6
:1001D00010921801809118019091190181309105B8
:1001E00099F18130910530F08230910571F00397DB
:1001F000F1F025C088E290E0FC01108281E090E0FF
:10020000909319018093180122C088E290E0209118
:100210001A01222F30E0225F3E4FF9012081FC01BC
:10022000208380911A018F5F80931A0110C09091F2
:100230001A0188E0981751F410921A0107C088E259
:1002400090E0FC01108203C0000001C0000000002B
:10025000DF91CF910895CF93DF93CDB7DEB781E2E1
:1002600090E0FC01108287E290E02FEFFC012083F8
:1002700082E290E02FEFFC01208388E290E0FC0115
:10028000108210921901109218010E949000FDCF67
:04029000F894FFCF10
:1002940000000002000000006700000000000021D0
:0802A400120C3F003F000800AE
:00000001FF
