:100000000C94B9000C94D8000C94D8000C94D8002F
:100010000C94D8000C94D8000C94D8000C94D80000
:100020000C94D8000C94D8000C94D8000C94D800F0
:100030000C94D8000C9486020C94D8000C94D80030
:100040000C94D8000C94D8000C94D8000C94D800D0
:100050000C94D8000C94D8000C94D8000C94D800C0
:100060000C94D8000C94D8000C94D8000C94D800B0
:100070000C94D8000C94D8000C94D8000C94D800A0
:100080000C94D8000C94D8000C94D8007D058305FE
:10009000F8057006DB064907B70725088D08F5083F
:1000A0005D09C809300A9B0A060B710BDC0B4A0C70
:1000B000F00CFD0C000D040D080D0C0D0F0D130DB3
:1000C000170D1B0D1E0D220D260D2A0D2D0D310DA8
:1000D000350D390D8B0DCB0DDF0D000E1F0E380EBB
:1000E000690E7A0F7A0F950EE10E7A0F0E0F730FCD
:1000F00007634236B79BD8A71A39685618AEBAAB11
:10010000558C1D3CB7CC5763BD6DEDFD753EF617A4
:100110007231BF000000803F08000000BE922449F9
:10012000123EABAAAA2ABECDCCCC4C3E0000008029
:10013000BEABAAAAAA3E00000000BF000000803F9C
:100140000000000000084178D3BB4387D1133D195C
:100150000E3CC3BD4282AD2B3E68EC8276BED98F89
:10016000E1A93E4C80EFFFBE01C4FF7F3F000000CD
:10017000000011241FBECFEFD0E4DEBFCDBF11E0E1
:10018000A0E0B1E0E8E4FCE200E00BBF02C00790B1
:100190000D92A43BB107D9F721E0A4EBB1E001C077
:1001A0001D92A63FB207E1F70E948F0F0C94221612
:1001B0000C940000CF93DF93CDB7DEB781E00E94AF
:1001C00001010000DF91CF910895CF93DF93CDB768
:1001D000DEB784E690E00E94D00188E30E9401012E
:1001E00086E00E9401018FE00E94010181E00E94EF
:1001F00001018AE090E00E94D0010000DF91CF91E0
:100200000895CF93DF931F92CDB7DEB789838BE23A
:1002100090E02BE230E0F90120812F7BFC0120836C
:1002200088E290E02981FC0120838BE290E02BE2C0
:1002300030E0F90120812068FC01208300008BE27E
:1002400090E02BE230E0F90120812F77FC01208340
:1002500082E090E00E94D00100000F90DF91CF91EA
:100260000895CF93DF931F92CDB7DEB789838BE2DA
:1002700090E02BE230E0F90120812064FC01208332
:1002800088E290E02981FC0120838BE290E02BE260
:1002900030E0F90120812068FC01208300008BE21E
:1002A00090E02BE230E0F90120812F77FC012083E0
:1002B00081E090E00E94D00100000F90DF91CF918B
:1002C0000895CF93DF9300D000D0CDB7DEB78A83F7
:1002D0007C836B830E94DA008A81898311C08981C3
:1002E00091E0980F99830E94B9018B819C819C01B8
:1002F0002F5F3F4F3C832B83FC0180810E943101A3
:100300008B819C81FC018081882349F700000F903C
:100310000F900F900F90DF91CF910895CF93DF93BF
:1003200000D000D0CDB7DEB78A837C836B838A810F
:10033000898311C0898191E0980F99830E94B90146
:100340008B819C819C012F5F3F4F3C832B83FC0161
:1003500080810E9431018B819C81FC0180818823F6
:1003600049F700000F900F900F900F90DF91CF9101
:100370000895CF93DF931F92CDB7DEB7898389812C
:10038000813128F4898181580E94010104C089814A
:1003900081550E94010100000F90DF91CF910895D7
:1003A000CF93DF9300D000D000D0CDB7DEB79E83CF
:1003B0008D831A82198213C01C821B8206C0000022
:1003C0008B819C8101969C838B838B819C81873060
:1003D0009340ACF389819A8101969A83898329811C
:1003E0003A818D819E812817390734F300002696C3
:1003F0000FB6F894DEBF0FBECDBFDF91CF91089549
:10040000CF93DF9300D000D01F92CDB7DEB78B83A0
:100410007D836C838B81883010F58B81882F90E0F1
:100420000896880F880F880F0E9401011A8219828E
:100430000FC089819A812C813D81820F931FFC011D
:1004400080810E94310189819A8101969A838983F2
:1004500089819A8108976CF380E80E94010100006D
:100460000F900F900F900F900F90DF91CF91089504
:10047000CF93DF93CDB7DEB781E890E02BE0FC01AE
:10048000208388E890E02DE730E0FC013183208371
:100490008FE690E022E0FC01208384E890E0FC01FC
:1004A000118210828091000190910101A0910201BE
:1004B000B09103018093B5019093B601A093B70169
:1004C000B093B8018FE590E02FE530E0F90120818D
:1004D0002068FC0120830000DF91CF910895CF9325
:1004E000DF93CDB7DEB781E890E0FC011082000019
:1004F000DF91CF910895CF93DF93CDB7DEB781E041
:100500008093B4010000DF91CF9108951F920F9264
:1005100000905F000F92112400905B000F922F93C8
:100520003F934F935F936F937F938F939F93AF937B
:10053000BF93EF93FF93CF93DF93CDB7DEB7809157
:10054000B5019091B601A091B701B091B8010197A2
:10055000A109B1098093B5019093B601A093B701A9
:10056000B093B8018091B5019091B601A091B70107
:10057000B091B801892B8A2B8B2B91F40E947B02BE
:100580008091000190910101A0910201B0910301BD
:100590008093B5019093B601A093B701B093B801D1
:1005A0000000DF91CF91FF91EF91BF91AF919F91AB
:1005B0008F917F916F915F914F913F912F910F900C
:1005C00000925B000F9000925F000F901F901895B3
:1005D000CF93DF9300D000D0CDB7DEB769837A83A5
:1005E0008B839C8389819A81AB81BC81809300013C
:1005F00090930101A0930201B09303018091000147
:1006000090910101A0910201B09103018093B50185
:100610009093B601A093B701B093B80100000F907A
:100620000F900F900F90DF91CF910895CF93DF93AC
:10063000CDB7DEB78CE790E020E4FC0120838AE7A9
:1006400090E027E8FC0120830000DF91CF9108951E
:10065000CF93DF931F92CDB7DEB7898389818770EF
:1006600089838CE790E02CE730E0F9012081322F7C
:10067000387F2981232BFC0120838AE790E02AE739
:1006800030E0F90120812064FC01208300008AE72A
:1006900090E0FC018081882F90E080749927892B5D
:1006A000B1F788E790E0FC01808191810F90DF91A4
:1006B000CF910895CF93DF93CDB7DEB72C970FB6C8
:1006C000F894DEBF0FBECDBF6D837E838F83988786
:1006D00029873A874B875C878D819E81AF81B8855A
:1006E00029853A854B855C85BC01CD010E94791135
:1006F000DC01CB0189839A83AB83BC8389819A8196
:10070000AB81BC81892B8A2B8B2B29F489859A8517
:10071000AB85BC8511C089859A85AB85BC858D83E9
:100720009E83AF83B88789819A81AB81BC81898799
:100730009A87AB87BC87D0CFBC01CD012C960FB672
:10074000F894DEBF0FBECDBFDF91CF910895CF9358
:10075000DF9300D01F92CDB7DEB789837B836A8396
:1007600089818A3031F48A819B81BC018DE00E94AD
:10077000A70380EC90E0FC018081882F90E08072DC
:100780009927892BB1F386EC90E02981FC01208325
:1007900080E090E00F900F900F90DF91CF9108953F
:1007A000CF93DF931F92CDB7DEB780E090E00E9439
:1007B000CB15898389818F3F09F4198289810F9034
:1007C000DF91CF910895CF93DF931F92CDB7DEB71E
:1007D0000E94D00389838091DF019981981738F4B2
:1007E0008091DF01682F80E090E00E94D315000027
:1007F0000F90DF91CF910895CF93DF9300D000D079
:10080000CDB7DEB781E00E9428039A83898380E018
:100810000E9428039C838B8389819A818739910563
:1008200038F483E090E09093EA018093E90128C0D6
:1008300089819A818A38924028F01092EA011092B8
:10084000E9011EC08B819C818739910538F482E0D3
:1008500090E09093EA018093E90112C08B819C8122
:100860008235934038F081E090E09093EA018093E4
:10087000E90106C084E090E09093EA018093E901E9
:1008800000000F900F900F900F90DF91CF9108957F
:10089000CF93DF93CDB7DEB70E94FC038091E001D8
:1008A0009091E1018130910569F08130910518F056
:1008B0000297E1F035C081E090E09093E1018093F0
:1008C000E00132C08091E9019091EA01049739F486
:1008D00081E090E09093E1018093E00125C082E007
:1008E00090E09093E1018093E0011EC08091E901C6
:1008F0009091EA01049739F481E090E09093E1014E
:100900008093E00111C082E090E09093E101809338
:10091000E00184E090E09093EA018093E90104C053
:100920001092E1011092E0018091E0019091E101CB
:100930008130910531F08130910528F0029729F03E
:1009400005C0000003C0000001C000008091E0016C
:100950009091E101DF91CF910895CF93DF93CDB7CF
:10096000DEB72E970FB6F894DEBF0FBECDBF83E281
:1009700090E0FC0180818170898383E290E0FC013A
:100980008081882F90E082709927959587958A833A
:1009900083E290E0FC018081882F90E084709927A9
:1009A00095958795959587958B8383E290E0FC01DB
:1009B0008081882F90E088709927959587959595E7
:1009C0008795959587958C8386E290E0FC018081E0
:1009D00081708D8386E290E0FC018081882F90E019
:1009E00082709927959587958E8386E290E0FC0129
:1009F0008081882F90E084709927959587959595AB
:100A000087958F8386E290E0FC018081882F90E0BB
:100A1000887099279595879595958795959587954C
:100A2000888786E290E0FC018081882F90E08071C9
:100A300099279595879595958795959587959595FA
:100A40008795898786E290E0FC018081882F90E07D
:100A50008072992795958795959587959595879512
:100A600095958795959587958A8786E290E0FC0114
:100A70008081882F90E080749927082E892F000CA0
:100A8000881F990B000C881F991F8B8786E290E0C6
:100A9000FC018081881F8827881F8C8789E290E06D
:100AA000FC018081882F90E080749927082E892F7F
:100AB000000C881F990B000C881F991F8D8789E2F5
:100AC00090E0FC018081881F8827881F8E87809195
:100AD000E2019091E301CC01A0E0B0E040E050E001
:100AE00021E130E0841B950B2817390708F43CC737
:100AF0008A5B9F4FFC010C949B111092E3011092B2
:100B0000E2010C94DA0C8981882341F083E090E0C3
:100B10009093E3018093E2010C94B90C89858823BA
:100B200041F087E090E09093E3018093E2010C9420
:100B3000B90C8C85882341F08DE090E09093E3011F
:100B40008093E2010C94B90C8F81882341F087E0F7
:100B500090E09093E3018093E2010C94B90C8C81B6
:100B6000882341F083E090E09093E3018093E201D9
:100B70000C94B90C8091E9019091EA01039741F43A
:100B800086E090E09093E3018093E2010C94B90C2D
:100B90008B81882341F089E090E09093E30180937A
:100BA000E2010C94B90C8D85882341F080E190E03E
:100BB0009093E3018093E2010C94B90C888588231B
:100BC00041F088E090E09093E3018093E2010C947F
:100BD000B90C8091E9019091EA01892B09F0C9C60D
:100BE0008AE090E09093E3018093E2010C94B90CC9
:100BF0008091E9019091EA01019741F48FE090E042
:100C00009093E3018093E2010C94BB0C8A818823CA
:100C100041F08BE090E09093E3018093E2010C942B
:100C2000BB0C8885882341F083E090E09093E3013A
:100C30008093E2010C94BB0C8A85882341F081E00B
:100C400090E09093E3018093E2010C94BB0C8E85BD
:100C5000882341F088E090E09093E3018093E201E3
:100C60000C94BB0C8091E9019091EA01892B41F42D
:100C70008DE090E09093E3018093E2010C94BB0C33
:100C80008F81882341F08BE090E09093E301809383
:100C9000E2010C94BB0C8091E9019091EA01039769
:100CA00041F485E090E09093E3018093E2010C949D
:100CB000BB0C8981882341F08AE090E09093E301A6
:100CC0008093E2010C94BB0C8C85882309F453C6F5
:100CD00087E090E09093E3018093E2010C94BB0CD9
:100CE0008A85882339F081E190E09093E301809335
:100CF000E20143C68091E9019091EA01039739F43A
:100D00008DE090E09093E3018093E20136C6898103
:100D1000882339F08CE090E09093E3018093E20126
:100D20002CC68F81882339F088E090E09093E3010E
:100D30008093E20122C68E81882339F082E090E020
:100D40009093E3018093E20118C68D85882339F0E2
:100D500089E090E09093E3018093E2010EC68091D8
:100D6000E9019091EA01029739F484E090E09093D0
:100D7000E3018093E20101C68C81882339F081E090
:100D800090E09093E3018093E201F7C58B8588237F
:100D900039F08DE090E09093E3018093E201EDC59E
:100DA0008D81882309F4E9C586E090E09093E30102
:100DB0008093E201E2C58885882339F089E090E0DC
:100DC0009093E3018093E201DAC58D85882339F0A1
:100DD00084E090E09093E3018093E201D0C58F819D
:100DE000882339F08FE090E09093E3018093E20153
:100DF000C6C58C85882339F081E090E09093E301AB
:100E00008093E201BCC58091E9019091EA010197CC
:100E100039F487E090E09093E3018093E201AFC55D
:100E20008091E9019091EA01029739F48CE090E019
:100E30009093E3018093E201A2C58D81882339F06C
:100E40008BE090E09093E3018093E20198C580915C
:100E5000E9019091EA01039739F48AE090E09093D8
:100E6000E3018093E2018BC58E81882339F083E012
:100E700090E09093E3018093E20181C58B81882308
:100E800009F47DC588E090E09093E3018093E2014E
:100E900076C58A81882339F088E090E09093E30159
:100EA0008093E2016EC58091E9019091EA01039778
:100EB00039F481E090E09093E3018093E20161C511
:100EC0008E85882339F085E090E09093E30180934C
:100ED000E20157C58985882339F080E190E090933D
:100EE000E3018093E2014DC58F81882339F083E0CF
:100EF00090E09093E3018093E20143C58091E90182
:100F00009091EA01892B39F482E090E09093E3011B
:100F10008093E20136C58B85882339F089E090E023
:100F20009093E3018093E2012CC58A85882339F0F0
:100F300086E090E09093E3018093E20122C58C81EA
:100F4000882339F08BE090E09093E3018093E201F5
:100F500018C58091E9019091EA01892B09F011C52A
:100F60008FE090E09093E3018093E2010AC58B85C6
:100F7000882339F087E090E09093E3018093E201C9
:100F800002C58E81882339F086E090E09093E301DA
:100F90008093E201F8C48091E9019091EA010397FE
:100FA00039F48CE090E09093E3018093E201EBC48C
:100FB0008A85882339F087E090E09093E30180935D
:100FC000E201E1C48E85882339F08FE090E09093B0
:100FD000E3018093E201D7C48091E9019091EA0195
:100FE000892B39F488E090E09093E3018093E2014B
:100FF000CAC48F81882339F081E090E09093E301A7
:101000008093E201C0C48091E9019091EA010397C5
:1010100039F482E090E09093E3018093E201B3C45D
:101020008B81882339F083E090E09093E3018093F3
:10103000E201A9C48D81882309F4A5C480E190E070
:101040009093E3018093E2019EC48F81882339F05D
:1010500085E090E09093E3018093E20196C48D8156
:10106000882339F087E090E09093E3018093E201D8
:101070008CC48091E9019091EA01029739F480E1F2
:1010800090E09093E3018093E2017FC48A858823F6
:1010900039F081E090E09093E3018093E20175C420
:1010A0008E81882339F08CE090E09093E301809367
:1010B000E2016BC48B85882339F081E190E0909345
:1010C000E3018093E20161C48885882339F08DE0D3
:1010D00090E09093E3018093E20157C48F818823CD
:1010E00039F089E090E09093E3018093E2014DC4F0
:1010F0008985882339F08FE090E09093E301809315
:10110000E20143C48E85882309F43FC48BE090E05C
:101110009093E3018093E20138C48B81882339F0F6
:1011200089E090E09093E3018093E20130C48C85E4
:10113000882339F088E090E09093E3018093E20106
:1011400026C48D85882339F08CE090E09093E301EC
:101150008093E2011CC48E81882339F082E090E004
:101160009093E3018093E20112C48D81882339F0CA
:1011700086E090E09093E3018093E20108C48091BF
:10118000E9019091EA01019739F484E090E09093AD
:10119000E3018093E201FBC38981882339F08FE06A
:1011A00090E09093E3018093E201F1C38885882366
:1011B00039F083E090E09093E3018093E201E7C38C
:1011C0008B85882339F08AE090E09093E301809347
:1011D000E201DDC38C81882309F4D9C386E090E065
:1011E0009093E3018093E201D2C38A85882339F08A
:1011F0008BE090E09093E3018093E201CAC38D817C
:10120000882339F081E090E09093E3018093E2013C
:10121000C0C38091E9019091EA01019739F48FE010
:1012200090E09093E3018093E201B3C38A81882325
:1012300039F081E190E09093E3018093E201A9C34A
:101240008C85882339F088E090E09093E3018093C7
:10125000E2019FC38E85882339F082E090E090936D
:10126000E3018093E20195C38B85882339F08DE0FB
:1012700090E09093E3018093E2018BC388858823FB
:1012800039F085E090E09093E3018093E20181C31F
:101290008A85882339F089E090E09093E301809378
:1012A000E20177C38981882309F473C38AE090E05F
:1012B0009093E3018093E2016CC38985882339F020
:1012C0008CE090E09093E3018093E20164C38C8111
:1012D000882339F085E090E09093E3018093E20168
:1012E0005AC38B85882339F087E090E09093E3011F
:1012F0008093E20150C38091E9019091EA01039744
:1013000039F481E090E09093E3018093E20143C3DC
:101310008D81882339F083E090E09093E3018093FE
:10132000E20139C38F81882339F08FE090E09093F8
:10133000E3018093E2012FC38A85882339F088E096
:1013400090E09093E3018093E20125C38D8588238B
:1013500039F080E190E09093E3018093E2011BC3B8
:101360008091E9019091EA01892B39F48BE090E0BA
:101370009093E3018093E2010EC38C85882309F4E6
:101380000AC389E090E09093E3018093E20103C3F4
:101390008D81882339F083E090E09093E30180937E
:1013A000E201FBC28A81882339F087E090E09093C4
:1013B000E3018093E201F1C28E85882339F08FE04A
:1013C00090E09093E3018093E201E7C28981882352
:1013D00039F082E090E09093E3018093E201DDC276
:1013E0008C85882339F086E090E09093E301809328
:1013F000E201D3C28091E9019091EA01029739F4A8
:101400008AE090E09093E3018093E201C6C28E816E
:10141000882339F088E090E09093E3018093E20123
:10142000BCC28985882339F081E090E09093E30184
:101430008093E201B2C28C81882339F085E090E08C
:101440009093E3018093E201A8C28A85882309F47E
:10145000A4C28CE090E09093E3018093E2019DC2EE
:101460008C81882339F081E090E09093E3018093B0
:10147000E20195C28D85882339F088E090E0909351
:10148000E3018093E2018BC28091E9019091EA012E
:10149000039739F48BE090E09093E3018093E201AD
:1014A0007EC28985882339F085E090E09093E3013E
:1014B0008093E20174C28981882339F084E090E04E
:1014C0009093E3018093E2016AC28885882339F012
:1014D0008FE090E09093E3018093E20160C28B85FE
:1014E000882339F081E190E09093E3018093E20159
:1014F00056C28E85882339F082E090E09093E30114
:101500008093E2014CC28091E9019091EA01029737
:1015100039F487E090E09093E3018093E2013FC2C9
:101520008F81882309F43BC28AE090E09093E30125
:101530008093E20134C28985882339F083E090E00A
:101540009093E3018093E2012CC28D81882339F0CE
:101550008DE090E09093E3018093E20122C28091BC
:10156000E9019091EA01019739F482E090E09093CB
:10157000E3018093E20115C28F81882339F084E072
:1015800090E09093E3018093E2010BC28C81882369
:1015900039F088E090E09093E3018093E20101C28A
:1015A0008D85882339F08BE090E09093E301809360
:1015B000E201F7C18E85882339F083E090E09093B3
:1015C000E3018093E201EDC18091E9019091EA018C
:1015D000892B39F487E090E09093E3018093E20156
:1015E000E0C18985882339F086E090E09093E3019B
:1015F0008093E201D6C18C85882309F4D2C185E0AD
:1016000090E09093E3018093E201CBC18D81882328
:1016100039F086E090E09093E3018093E201C3C14A
:101620008885882339F082E090E09093E3018093ED
:10163000E201B9C18091E9019091EA01029739F480
:101640008DE090E09093E3018093E201ACC1898545
:10165000882339F08CE090E09093E3018093E201DD
:10166000A2C18B81882339F088E090E09093E30158
:101670008093E20198C18E85882339F089E090E05B
:101680009093E3018093E2018EC18091E9019091F2
:10169000EA01019739F483E090E09093E3018093AD
:1016A000E20181C18B81882339F080E190E0909341
:1016B000E3018093E20177C18885882339F084E0D3
:1016C00090E09093E3018093E2016DC18B858823C4
:1016D00009F469C18FE090E09093E3018093E20107
:1016E00062C18C81882339F082E090E09093E3011D
:1016F0008093E2015AC18B85882339F08FE090E016
:101700009093E3018093E20150C18E81882339F0E8
:1017100089E090E09093E3018093E20146C18985DE
:10172000882339F085E090E09093E3018093E20113
:101730003CC18C85882339F087E090E09093E301E9
:101740008093E20132C18091E9019091EA01019711
:1017500039F489E090E09093E3018093E20125C1A0
:101760008091E9019091EA01029739F48CE090E0D0
:101770009093E3018093E20118C18D85882339F0AD
:1017800081E190E09093E3018093E2010EC18D81AD
:10179000882339F080E190E09093E3018093E201A7
:1017A00004C18885882309F400C184E090E0909307
:1017B000E3018093E201F9C08E81882339F087E04C
:1017C00090E09093E3018093E201F1C08091E90100
:1017D0009091EA01029739F48EE090E09093E30152
:1017E0008093E201E4C08981882339F081E190E0AF
:1017F0009093E3018093E201DAC08F81882339F06E
:1018000087E090E09093E3018093E201D0C08B8564
:10181000882339F088E090E09093E3018093E2011F
:10182000C6C08D85882339F08CE090E09093E30169
:101830008093E201BCC08A85882339F081E090E082
:101840009093E3018093E201B2C08091E90190910D
:10185000EA01039739F483E090E09093E3018093E9
:10186000E201A5C08091E9019091EA01049739F461
:1018700089E090E09093E3018093E20198C08C8529
:10188000882309F494C08DE090E09093E301809365
:10189000E2018DC08981882339F083E090E0909344
:1018A000E3018093E20185C08091E9019091EA0112
:1018B000019739F487E090E09093E3018093E2018F
:1018C00078C08F81882339F08CE090E09093E30119
:1018D0008093E2016EC08C85882339F08BE090E024
:1018E0009093E3018093E20164C08B81882339F0F7
:1018F0008AE090E09093E3018093E2015AC08091E6
:10190000E9019091EA01029739F482E090E0909326
:10191000E3018093E2014DC08B85882339F081E09B
:1019200090E09093E3018093E20143C08A81882391
:1019300039F089E090E09093E3018093E20139C0AF
:101940008E85882339F088E090E09093E3018093BE
:10195000E2012FC08E81882361F180E190E09093B5
:10196000E3018093E20125C01092E3011092E201AD
:1019700021C000001FC000001DC000001BC00000EF
:1019800019C0000017C0000015C0000013C00000FF
:1019900011C000000FC000000DC000000BC000000F
:1019A00009C0000007C0000005C0000003C000001F
:1019B00001C000008091E2019091E301CC01A0E020
:1019C000B0E040E050E021E130E0841B950B2817A7
:1019D000390708F45AC0885A9F4FFC010C949B1198
:1019E0000E94BC1583709078992324F401978C6F22
:1019F0009F6F01968093EB0149C01092EB0146C0A6
:101A000081E08093EB0142C082E08093EB013EC015
:101A100083E08093EB013AC01092EB0137C081E084
:101A20008093EB0133C082E08093EB012FC083E011
:101A30008093EB012BC01092EB0128C081E08093D2
:101A4000EB0124C082E08093EB0120C083E080930F
:101A5000EB011CC01092EB0119C081E08093EB01F7
:101A600015C082E08093EB0111C083E08093EB010D
:101A70000DC00E94BC1583709078992324F40197BF
:101A80008C6F9F6F01968093EB0100008091E201C3
:101A90009091E3012E960FB6F894DEBF0FBECDBF36
:101AA000DF91CF9108950F931F93CF93DF93CDB71D
:101AB000DEB7C254D1090FB6F894DEBF0FBECDBF5A
:101AC00081E2ECE4F1E0DE01129601900D928A953C
:101AD000E1F780E2EDE6F1E0DE01939601900D92F0
:101AE0008A95E1F70E94D00389838091DD0190916E
:101AF000DE01CC01A0E0B0E040E050E026E030E0C4
:101B0000841B950B2817390708F4F5C086599F4F99
:101B1000FC010C949B1181E090E09093DE01809396
:101B2000DD011092B9011092BA011092BB0110921E
:101B3000DF01CE010296BC0181E090E00E946101CC
:101B40008FE190E00E94B90199818DEC989F812DE1
:101B50001124869586958695882F90E0C0960E94E0
:101B6000310180E290E00E94B90199818DEC989F4B
:101B7000812D1124869586958695880F282F220F12
:101B8000220F820FF92FF81B8F2F882F90E0C0961D
:101B90000E943101B4C08091E9019091EA0102975D
:101BA00039F081E090E09093DE018093DD01A7C0E1
:101BB00082E090E09093DE018093DD01A0C08091EF
:101BC000BA01863080F086E090E09093DE01809349
:101BD000DD01CE018396BC0181E090E00E946101AD
:101BE0000E94E3038CC083E090E09093DE01809339
:101BF000DD0166E171E081E090E00E9461017FC05B
:101C00009091B9018091BA01981791F484E090E025
:101C10009093DE018093DD011092B90185E290E09E
:101C200023E230E0F9012081207FFC01208367C09E
:101C300083E090E09093DE018093DD0160C08091AD
:101C4000BB01853078F060E271E081E090E00E94B5
:101C5000610185E090E09093DE018093DD011092B8
:101C6000BB014DC08091BB018F5F8093BB0147C01A
:101C700085E290E025E230E0F9012081207FFC013F
:101C800020839091B9018091BA01981749F480910D
:101C9000B901882329F41092DE011092DD012FC0D2
:101CA0009091B9018091BA01981761F482E090E0B7
:101CB0009093DE018093DD018091DF018F5F80933F
:101CC000DF011DC085E090E09093DE018093DD018F
:101CD00016C08091E9019091EA01019739F086E000
:101CE00090E09093DE018093DD0109C01092DE0147
:101CF0001092DD0104C01092DE011092DD0180918E
:101D0000DD019091DE01CC01A0E0B0E040E050E0C8
:101D100026E030E0841B950B2817390708F4E8C04B
:101D20008F589F4FFC010C949B118091BA018F5FDB
:101D30008093BA018091BA01863008F0DDC010921C
:101D4000B9018091BA01882F90E001972091EB01B1
:101D5000222F30E0880F991F84519E4FFC01318360
:101D600020838091BA01882F90E08C0101501109E5
:101D70008091EB01882F90E0A0E0B0E0BC01CD01A4
:101D80000E94D311DC01CB019C01AD0160E070E049
:101D900080E090E40E943912DC01CB01BC01CD014E
:101DA0000E948912DC01CB01BC01CD010E94A4116B
:101DB000DC01CB01282FC8018C519E4FFC012083F0
:101DC0009BC085E290E023E230E0F9012081422FC0
:101DD000407F2091B901222F30E02C513E4FF90174
:101DE0002081242BFC0120838091B901882F90E071
:101DF00041960E94B9018091B901882F90E0880F27
:101E0000991F84519E4FFC01808191810E94310174
:101E10008091B9018F5F8093B90171C08091B90140
:101E2000882331F460E371E081E190E00E948E014B
:101E30008091B901882F90E0880F991F84519E4F9F
:101E4000FC01208131818091E9019091EA012817FC
:101E5000390769F585E290E023E230E0F90120815D
:101E6000422F407F2091B901222F30E02C513E4F6C
:101E7000F9012081242BFC0120838091B901882F56
:101E800090E041960E94B9018091B901882F90E0BD
:101E9000880F991F84519E4FFC01808191810E947F
:101EA00031018091B9018F5F8093B90127C0809182
:101EB000E9019091EA01049709F11092B901109299
:101EC000BA0161E471E081E190E00E948E0185E257
:101ED00090E023E230E0F9012081207FFC012083A3
:101EE0000E94E3030BC085E290E0FC01108207C072
:101EF000000005C0000003C0000001C00000809188
:101F0000DD019091DE01CE5BDF4F0FB6F894DEBFAE
:101F10000FBECDBFDF91CF911F910F9108950F9309
:101F20001F93CF93DF93CDB7DEB7E1970FB6F89449
:101F3000DEBF0FBECDBF87E290E02FEFFC01208314
:101F400088E290E0FC0110828AE290E02FEFFC0131
:101F500020838BE290E0FC01108281E290E0FC01A2
:101F6000108282E290E02FEFFC01208384E290E077
:101F70002FEFFC01208385E290E0FC0110820E949B
:101F800016030E94E50088E0EDE8F1E0DE011C9612
:101F900001900D928A95E1F788E0E5E9F1E0DE0134
:101FA000549601900D928A95E1F788E0EDE9F1E011
:101FB000DE015C9601900D928A95E1F788E0E5EAF2
:101FC000F1E0DE01949601900D928A95E1F7CE0141
:101FD0004496BC0180E090E00E940002CE0184960D
:101FE000BC0181E090E00E940002CE014C96BC0151
:101FF00082E090E00E940002CE010C96BC0183E0DA
:1020000090E00E94000286E0EDEAF1E0DE019C969D
:1020100001900D928A95E1F783E090E09A87898795
:102020001B868B858093BC0184EF91E0A0E0B0E03B
:102030008093BD019093BE01A093BF01B093C001F6
:102040008091BD019091BE01A091BF01B091C001EE
:102050008093C1019093C201A093C301B093C401C6
:1020600088E494E09093C6018093C5018B858093AA
:10207000C70184E690E0A0E0B0E08093C8019093AF
:10208000C901A093CA01B093CB018091C80190917E
:10209000C901A091CA01B091CB018093CC0190936A
:1020A000CD01A093CE01B093CF018DEA94E090933F
:1020B000D1018093D0018B858093D20184EF91E090
:1020C000A0E0B0E08093D3019093D401A093D50118
:1020D000B093D6018091D3019091D401A091D50104
:1020E000B091D6018093D7019093D801A093D901E4
:1020F000B093DA0183E59DE09093DC018093DB01EE
:102100008CA59DA5FC0181819281A381B4818983E5
:102110009A83AB83BC8381E090E09E838D8325C04E
:102120008D819E81880F991F9E012F5F3F4F820FE7
:10213000931F8B96FC0180819181FC01218132816A
:102140004381548189819A81AB81BC81BC01CD01DD
:102150000E945A03DC01CB0189839A83AB83BC8341
:102160008D819E8101969E838D832D813E818985FF
:102170009A8528173907A0F289819A81AB81BC81A1
:10218000BC01CD010E94E8020E94380218861F821D
:10219000A0C08F819885880F991F9E012F5F3F4FA8
:1021A000820F931F8B96FC0180819181FC01258118
:1021B0003681478150858F819885880F991FBE0190
:1021C0006F5F7F4F860F971F8B96FC0180819181F7
:1021D000FC0181819281A381B481281739074A07C4
:1021E0005B0709F045C08F819885880F991F9E0174
:1021F0002F5F3F4F820F931F8B96FC01008111814F
:102200008F819885880F991F9E012F5F3F4F820F06
:10221000931F8B96FC0180819181FC012185328581
:102220008F819885880F991FAE014F5F5F4F840F94
:10223000951F8B96FC0180819181FC018081082E85
:10224000000C990BF9010995F80180838F8198851D
:10225000880F991F9E012F5F3F4F820F931F8B9610
:10226000FC0180819181FC01158216821782108603
:102270008F819885880F991F9E012F5F3F4F820F96
:10228000931F8B96FC01608171818F819885880FE7
:10229000991F9E012F5F3F4F820F931F8B96FC016A
:1022A00080819181FC01258136814781508589811A
:1022B0009A81AB81BC81820F931FA41FB51FFB01C4
:1022C00085839683A783B0878F81988501969887A9
:1022D0008F832F81388589859A852817390708F4D7
:1022E00058CF00008091B4018823E1F31092B4012B
:1022F0004DCFA1E21A2EAA1BBB1BFD010DC0AA1FC8
:10230000BB1FEE1FFF1FA217B307E407F50720F05E
:10231000A21BB30BE40BF50B661F771F881F991FD9
:102320001A9469F760957095809590959B01AC0122
:10233000BD01CF010895EE0FFF1F0024001C0BBE4E
:102340000790F691E02D09940E94181288F09F578B
:1023500098F0B92F9927B751B0F0E1F0660F771FC9
:10236000881F991F1AF0BA95C9F714C0B13091F0BF
:102370000E943212B1E008950C943212672F782F28
:102380008827B85F39F0B93FCCF386957795679584
:10239000B395D9F73EF490958095709561957F4FF0
:1023A0008F4F9F4F0895E89409C097FB3EF4909596
:1023B0008095709561957F4F8F4F9F4F9923A9F01E
:1023C000F92F96E9BB279395F695879577956795AD
:1023D000B795F111F8CFFAF4BB0F11F460FF1BC0F1
:1023E0006F5F7F4F8F4F9F4F16C0882311F096E984
:1023F00011C0772321F09EE8872F762F05C0662332
:1024000071F096E8862F70E060E02AF09A95660FEA
:10241000771F881FDAF7880F9695879597F90895A3
:1024200057FD9058440F551F59F05F3F71F0479585
:10243000880F97FB991F61F09F3F79F0879508956A
:10244000121613061406551FF2CF4695F1DF08C089
:10245000161617061806991FF1CF869571056105A6
:1024600008940895E894BB2766277727CB0197F94E
:102470000895FA01EE0FFF1F309621053105A1F1F5
:102480006115710561F48038BFE39B0749F16894D9
:102490009038810561F08038BFEF9B0741F09923A8
:1024A0004AF5FF3FE1053105210519F1E89408944B
:1024B000E795D901AA2329F4AB2FBE2FF85FD0F3FB
:1024C00010C0FF5F70F4A695E0F7F73950F019F0EF
:1024D000FF3A38F49F779F930DD00F9007FC9058E8
:1024E000089546F00C94161360E070E080E89FE3D6
:1024F00008954FE79F775F934F933F932F930E94E9
:102500008A132F913F914F915F910E9406140C9472
:10251000B5120E941812E8F09E37E8F09639B8F428
:102520009E3848F4672F782F8827985FF9CF8695D3
:102530007795679593959539D0F3B62FB1706B0F5A
:10254000711D811D20F487957795679593950C945F
:10255000ED120C9408130C94331229F416F00C9419
:10256000E7120C9432120C9416130E941812A8F35E
:102570009638A0F707F80F92E8942BE33AEA48EB75
:102580005FE70E941C140F920F920F924DB75EB737
:102590000F920E94D213E0EFF0E00E9419134F91C6
:1025A0005F91EF91FF91E595EE1FFF1F49F0FE57F8
:1025B000E0684427EE0F441FFA95E1F74195550B6B
:1025C0000E944C130F9007FE0C944013089597F946
:1025D0009F6780E870E060E00895882371F47723B6
:1025E00021F09850872B762F07C0662311F4992786
:1025F0000DC09051862B70E060E02AF09A95660F2E
:10260000771F881FDAF7880F9695879597F90895B1
:102610009F3F31F0915020F4879577956795B79556
:10262000880F911D9695879597F908959FEF80ECF7
:102630000895DF93CF931F930F93FF92EF92DF9252
:102640007B018C01689406C0DA2EEF010E941914F8
:10265000FE01E894A5912591359145915591A6F3F8
:10266000EF010E948B14FE019701A801DA9469F72B
:10267000DF90EF90FF900F911F91CF91DF91089520
:102680009B01AC0160E070E080E89FE30C94E014F3
:102690000C94E7120C9408130E941812D8F3992393
:1026A000C9F3940F511DA3F39150504094F059F089
:1026B000882332F0660F771F881F91505040C1F772
:1026C0009E3F51052CF7880F911D9695879597F998
:1026D00008955F3FACF0983E9CF0BB2786957795B8
:1026E0006795B79508F4B1609395C1F7BB0F58F79C
:1026F00011F460FFE8CF6F5F7F4F8F4F9F4FE3CFA5
:102700000C94331216F00C9408130C94161368945E
:102710000C94E7120E941812A8F39923C1F3AEF3A8
:10272000DF93CF931F930F93FF92C92FDD27882349
:102730002AF02197660F771F881FDAF720E030E034
:1027400040E85FEB9FE3883920F0803E38F0219627
:102750008F770E947414E8E1F1E004C00E947414C1
:10276000E5E4F1E00E9419138B01BE01EC01FB2EA0
:102770006F5771097595771F880B990B0E94D511BA
:1027800028E132E741E35FE30E941914AF2D98017D
:10279000AE01FF900F911F91CF91DF910E948B149A
:1027A0000C946015FA01DC01AA0FBB1F9B01AC0160
:1027B000BF5728F4222733274427507820C0B75129
:1027C00090F4AB2F0024469537952795011CA395CF
:1027D000D2F3002071F0220F331F441FB395DAF3B8
:1027E0000ED00C94731461307105A0E88A07B946C5
:1027F00030F49B01AC0166277727882790783096C4
:1028000021F0208331834283538308950E94191459
:102810000C9460150E94521538F00E94591520F052
:10282000952311F00C94E7120C94161311240C94B8
:1028300033120E94101270F3959FC1F3950F50E070
:10284000551F629FF001729FBB27F00DB11D639F62
:10285000AA27F00DB11DAA1F649F6627B00DA11D08
:10286000661F829F2227B00DA11D621F739FB00DAE
:10287000A11D621F839FA00D611D221F749F33271E
:10288000A00D611D231F849F600D211D822F762FB7
:102890006A2F11249F5750409AF0F1F088234AF094
:1028A000EE0FFF1FBB1F661F771F881F9150504000
:1028B000A9F79E3F510580F00C94E7120C94331257
:1028C0005F3FE4F3983ED4F3869577956795B79587
:1028D000F795E7959F5FC1F7FE2B880F911D9695A1
:1028E000879597F908955058BB27AA270E948B1403
:1028F0000C9460150E94521538F00E94591520F072
:1029000039F49F3F19F426F40C9416130EF4E09555
:10291000E7FB0C94E712E92F0E94101258F3BA1744
:10292000620773078407950720F079F4A6F50C94E5
:1029300032120EF4E0950B2EBA2FA02D0B01B90127
:1029400090010C01CA01A0011124FF27591B99F025
:10295000593F50F4503E68F11A16F040A22F232F31
:10296000342F4427585FF3CF469537952795A79581
:10297000F0405395C9F77EF41F16BA0B620B730B28
:10298000840BBAF09150A1F0FF0FBB1F661F771F99
:10299000881FC2F70EC0BA0F621F731F841F48F44E
:1029A000879577956795B795F7959E3F08F0B0CFD7
:1029B0009395880F08F09927EE0F979587950895BE
:1029C0000E94F4140C9460150E94591558F00E944E
:1029D000521540F029F45F3F29F00C94E712511191
:1029E0000C9433120C9416130E94101268F399235E
:1029F000B1F3552391F3951B550BBB27AA276217FB
:102A00007307840738F09F5F5F4F220F331F441F07
:102A1000AA1FA9F335D00E2E3AF0E0E832D091503B
:102A20005040E695001CCAF72BD0FE2F29D0660F28
:102A3000771F881FBB1F261737074807AB07B0E86B
:102A400009F0BB0B802DBF01FF2793585F4F3AF071
:102A50009E3F510578F00C94E7120C9433125F3FBF
:102A6000E4F3983ED4F3869577956795B795F795F7
:102A70009F5FC9F7880F911D9695879597F90895DF
:102A8000E1E0660F771F881FBB1F6217730784077B
:102A9000BA0720F0621B730B840BBA0BEE1F88F78A
:102AA000E095089500240A941616170618060906DC
:102AB000089500240A9412161306140605060895B4
:102AC000092E0394000C11F4882352F0BB0F40F43C
:102AD000BF2B11F460FF04C06F5F7F4F8F4F9F4F7C
:102AE00008958F929F92AF92BF92CF92DF92EF9212
:102AF000FF92CF93DF93EC01688179818A819B817A
:102B0000611571058105910521F464E279ED8BE58C
:102B100097E02DE133EF41E050E00E94E1154901DB
:102B20005A019B01AC01A7EAB1E40E9400166B01B7
:102B30007C01ACEEB4EFA50194010E940E16DC01FD
:102B4000CB018C0D9D1DAE1DBF1DB7FF03C00197AE
:102B5000A109B04888839983AA83BB839F77DF91BB
:102B6000CF91FF90EF90DF90CF90BF90AF909F906C
:102B70008F9008950C94711582E191E00C94711579
:102B8000A0E0B0E08093120190931301A093140190
:102B9000B09315010895F999FECF92BD81BDF89AC1
:102BA000992780B50895262FF999FECF1FBA92BDB7
:102BB00081BD20BD0FB6F894FA9AF99A0FBE01961E
:102BC0000895052E97FB1EF400940E94F81557FDFA
:102BD00007D00E94791107FC03D04EF40C94F8152D
:102BE00050954095309521953F4F4F4F5F4F089539
:102BF00090958095709561957F4F8F4F9F4F089569
:102C00000E941316A59F900DB49F900DA49F800D58
:102C1000911D11240895B7FF0C9400160E94001610
:102C2000821B930B0895A29FB001B39FC001A39F85
:102C3000700D811D1124911DB29F700D811D1124F5
:082C4000911D0895F894FFCFE7
:102C4800010000000000000200000000A7030000CF
:102C580000000100000053657175656E63653A00F8
:102C6800436865636B696E67204D617463683A00F9
:102C7800202020202020202020202020202020204C
:102C880000494E434F5252454354210053696D6FDA
:102C98006E20536179733A2055502020544F2053A9
:102CA800544152542F484947483A202000594F551B
:102CB8002057494E212020202020202020444F57F3
:102CC8004E20544F20524553544152540007050793
:102CD800050018141C0F1011101413100F1F1111D8
:102CE8001F1F1F1B1B081E0C0D0C041602BC01C75E
:042CF80001D2010004
:00000001FF
