:100000000C9446000C9465000C9465000C946500FB
:100010000C9465000C9465000C9465000C946500CC
:100020000C9465000C9465000C9465000C946500BC
:100030000C9465000C94B0010C9465000C94650060
:100040000C9465000C9465000C9465000C9465009C
:100050000C9465000C9465000C9465000C9465008C
:100060000C9465000C9465000C9465000C9465007C
:100070000C9465000C9465000C9465000C9465006C
:100080000C9465000C9465000C94650011241FBE4F
:10009000CFEFD0E4DEBFCDBF11E0A0E0B1E0ECE7F0
:1000A000FDE000E00BBF02C007900D92AE31B1073A
:1000B000D9F721E0AEE1B1E001C01D92A233B20751
:1000C000E1F70E947E040C94BC060C940000CF93D0
:1000D000DF93CDB7DEB781E00E948E000000DF9194
:1000E000CF910895CF93DF93CDB7DEB784E690E04C
:1000F0000E94320188E30E948E0086E00E948E00FA
:100100008FE00E948E0081E00E948E008AE090E0E5
:100110000E9432010000DF91CF910895CF93DF93C9
:100120001F92CDB7DEB789838BE290E02BE230E0FF
:10013000F90120812F7BFC01208388E290E0298156
:10014000FC0120838BE290E02BE230E0F90120817A
:100150002068FC01208300008BE290E02BE230E07D
:10016000F90120812F77FC01208382E090E00E943A
:10017000320100000F90DF91CF910895CF93DF936C
:100180001F92CDB7DEB789838BE290E02BE230E09F
:10019000F90120812064FC01208388E290E029811C
:1001A000FC0120838BE290E02BE230E0F90120811A
:1001B0002068FC01208300008BE290E02BE230E01D
:1001C000F90120812F77FC01208381E090E00E94DB
:1001D000320100000F90DF91CF910895CF93DF930C
:1001E00000D000D0CDB7DEB78A837C836B830E94BA
:1001F00067008A81898311C0898191E0980F998372
:100200000E941B018B819C819C012F5F3F4F3C838F
:100210002B83FC0180810E94BE008B819C81FC01AC
:100220008081882349F700000F900F900F900F9066
:10023000DF91CF910895CF93DF931F92CDB7DEB7B3
:1002400089838981813128F4898181580E948E00B7
:1002500004C0898181550E948E0000000F90DF91BB
:10026000CF910895CF93DF9300D000D000D0CDB7C9
:10027000DEB79E838D831A82198213C01C821B8273
:1002800006C000008B819C8101969C838B838B81AF
:100290009C8187309340ACF389819A8101969A833F
:1002A000898329813A818D819E812817390734F30A
:1002B000000026960FB6F894DEBF0FBECDBFDF91CB
:1002C000CF910895CF93DF93CDB7DEB781E890E06B
:1002D0002BE0FC01208388E890E02DE730E0FC0172
:1002E000318320838FE690E022E0FC01208384E8C4
:1002F00090E0FC0111821082809100019091010137
:10030000A0910201B091030180931F0190932001FD
:10031000A0932101B09322018FE590E02FE530E01A
:10032000F90120812068FC0120830000DF91CF913A
:100330000895CF93DF93CDB7DEB781E890E0FC015D
:1003400010820000DF91CF910895CF93DF93CDB756
:10035000DEB781E080931E010000DF91CF91089508
:100360001F920F9200905F000F92112400905B008B
:100370000F922F933F934F935F936F937F938F933E
:100380009F93AF93BF93EF93FF93CF93DF93CDB73B
:10039000DEB780911F0190912001A0912101B091C1
:1003A00022010197A109B10980931F0190932001B7
:1003B000A0932101B093220180911F01909120010F
:1003C000A0912101B0912201892B8A2B8B2B91F4D2
:1003D0000E94A5018091000190910101A09102016C
:1003E000B091030180931F0190932001A0932101FC
:1003F000B09322010000DF91CF91FF91EF91BF9167
:10040000AF919F918F917F916F915F914F913F91AC
:100410002F910F9000925B000F9000925F000F9061
:100420001F901895CF93DF9300D000D0CDB7DEB7E3
:1004300069837A838B839C8389819A81AB81BC8118
:100440008093000190930101A0930201B0930301F6
:100450008091000190910101A0910201B0910301EE
:1004600080931F0190932001A0932101B09322015A
:1004700000000F900F900F900F90DF91CF91089593
:10048000CF93DF9300D01F92CDB7DEB789837B83F4
:100490006A8389818A3031F48A819B81BC018DE035
:1004A0000E94400280EC90E0FC018081882F90E067
:1004B00080729927892BB1F386EC90E02981FC01A9
:1004C000208380E090E00F900F900F90DF91CF910C
:1004D0000895CF93DF93CDB7DEB78091240190913B
:1004E00025018130910599F08130910530F08230FD
:1004F0009105A1F00397C9F01FC081E090E09093AF
:1005000025018093240181E08093280119C082E0B5
:1005100090E0909325018093240112C083E090E045
:1005200090932501809324010BC081E090E090938B
:1005300025018093240104C010922501109224010A
:1005400080912401909125018130910549F08130FD
:100550009105B0F08230910539F0039749F00CC055
:1005600081E0809328010DC082E08093280109C0BA
:1005700084E08093280105C081E08093280101C0B8
:1005800000000000DF91CF910895CF93DF93CDB7A6
:10059000DEB78091290190912A01009719F0019707
:1005A00059F011C081E090E090932A0180932901D5
:1005B00081E0809331010BC081E090E090932A01AB
:1005C0008093290104C010922A0110922901809180
:1005D000290190912A01009799F0019771F4809177
:1005E0003101882F90E08170992721E0892B09F053
:1005F00020E0822F8093310104C01092310101C0AC
:1006000000000000DF91CF910895CF93DF931F92F8
:10061000CDB7DEB780E290E0FC01808180958470E8
:10062000898380912B0190912C0181309105A1F05B
:100630008130910518F0029701F130C081E090E01F
:1006400090932C0180932B0110922D0182E08093D6
:1006500030011092230126C08981882339F082E07D
:1006600090E090932C0180932B011CC081E090E0DE
:1006700090932C0180932B0115C08981882339F038
:1006800082E090E090932C0180932B010BC081E0DD
:1006900090E090932C0180932B0104C010922C01C8
:1006A00010922B0180912B0190912C0181309105AA
:1006B00031F08130910540F1029721F022C0109273
:1006C0002D0123C08091230190913001692F0E9458
:1006D0008C05892F882379F480912D01882F90E053
:1006E0008170992721E0892B09F020E0822F8093E7
:1006F0002D0110922301809123018F5F80932301AC
:1007000004C010922D0101C0000000000F90DF9185
:10071000CF910895CF93DF931F92CDB7DEB780E2DC
:1007200090E0FC01808180958370898380912E0107
:1007300090912F018230910581F18330910528F449
:10074000009749F0019771F047C08330910561F13E
:10075000049789F141C081E090E090932F0180934C
:100760002E013EC08981823039F482E090E090937E
:100770002F0180932E0134C08981813039F483E0C8
:1007800090E090932F0180932E012AC081E090E0A9
:1007900090932F0180932E0123C084E090E09093EA
:1007A0002F0180932E011CC084E090E090932F01D4
:1007B00080932E0115C08981882339F084E090E070
:1007C00090932F0180932E010BC081E090E09093D5
:1007D0002F0180932E0104C010922F0110922E0140
:1007E00080912E0190912F018230910571F083301C
:1007F000910528F4009709F1019709F11AC0833097
:10080000910569F00497E9F014C0809130018630B9
:10081000D0F4809130018F5F8093300114C08091BB
:100820003001823090F0809130018150809330010E
:100830000CC082E08093300109C0000007C00000B6
:1008400005C0000003C0000001C0000000000F90C0
:10085000DF91CF910895CF93DF93CDB7DEB780912D
:10086000260190912701009719F0019761F012C0BD
:1008700081E090E0909327018093260185E290E04B
:10088000FC0110820BC081E090E0909327018093DF
:10089000260104C0109227011092260180912601A2
:1008A00090912701009729F10197F1F485E290E0FA
:1008B00020912D01222F30E022953295307F322772
:1008C000207F3227422F20913101222F30E0220F4A
:1008D000331F220F331F220F331F242B3091280187
:1008E000232BFC01208306C085E290E0FC011082EE
:1008F00001C000000000DF91CF910895CF93DF93F6
:10090000CDB7DEB72E970FB6F894DEBF0FBECDBFC2
:1009100084E290E02FEFFC01208385E290E0FC016F
:10092000108281E290E0FC01108282E290E02FEFE1
:10093000FC0120838CE291E09A83898388EE93E026
:100940009C838B8381E090E09E838D8381E090E0A7
:10095000CC01A0E0B0E0BC01CD010E940A06DC01A0
:10096000CB018F839887A987BA8784E690E0CC0172
:10097000A0E0B0E0BC01CD010E940A06DC01CB0181
:100980008B879C87AD87BE8710922501109224012A
:1009900010922A011092290110922701109226012B
:1009A00010922C0110922B0110922F0110922E0107
:1009B00081E090E0CC01A0E0B0E0BC01CD010E945C
:1009C00012020E9462018CE291E029813A8128178B
:1009D000390720F00E9469021A82198288EE93E09A
:1009E0002B813C812817390720F00E94C5021C8208
:1009F0001B8281E090E0CC01A0E0B0E0BC01CD0121
:100A00000E940A06DC01CB012F81388549855A8571
:100A1000BC01CD010E940506181634F00E940503A2
:100A20001F82188619861A8684E690E0CC01A0E021
:100A3000B0E0BC01CD010E940A06DC01CB012B8590
:100A40003C854D855E85BC01CD010E9405061816CA
:100A500034F00E948A031B861C861D861E8681E058
:100A600090E02D813E812817390720F00E942B0449
:100A70001E821D82000080911E018823E1F31092E6
:100A80001E0181E090E029813A81820F931F9A83B1
:100A9000898381E090E02B813C81820F931F9C83AE
:100AA0008B8381E090E02D813E81820F931F9E8396
:100AB0008D8381E090E0CC01A0E0B0E0BC01CD01ED
:100AC0000E940A06DC01CB019C01AD016F81788593
:100AD00089859A850E949905DC01CB018F839887CF
:100AE000A987BA8781E090E0CC01A0E0B0E0BC012A
:100AF000CD010E940A06DC01CB019C01AD016B8592
:100B00007C858D859E850E949905DC01CB018B87B4
:100B10009C87AD87BE8757CF991B79E004C0991F8A
:100B2000961708F0961B881F7A95C9F78095089547
:100B30005058BB27AA270E94B0050C9482060E9439
:100B4000740638F00E947B0620F039F49F3F19F4B8
:100B500026F40C9471060EF4E095E7FB0C946B06FA
:100B6000E92F0E94930658F3BA17620773078407A8
:100B7000950720F079F4A6F50C94B5060EF4E095EF
:100B80000B2EBA2FA02D0B01B90190010C01CA0147
:100B9000A0011124FF27591B99F0593F50F4503EF2
:100BA00068F11A16F040A22F232F342F4427585FE4
:100BB000F3CF469537952795A795F0405395C9F7FC
:100BC0007EF41F16BA0B620B730B840BBAF09150B4
:100BD000A1F0FF0FBB1F661F771F881FC2F70EC053
:100BE000BA0F621F731F841F48F487957795679526
:100BF000B795F7959E3F08F0B0CF9395880F08F012
:100C00009927EE0F9795879508950E94470608F457
:100C100081E00895E89409C097FB3EF49095809593
:100C2000709561957F4F8F4F9F4F9923A9F0F92FB2
:100C300096E9BB279395F695879577956795B79530
:100C4000F111F8CFFAF4BB0F11F460FF1BC06F5F16
:100C50007F4F8F4F9F4F16C0882311F096E911C028
:100C6000772321F09EE8872F762F05C0662371F049
:100C700096E8862F70E060E02AF09A95660F771F5D
:100C8000881FDAF7880F9695879597F90895990F39
:100C90000008550FAA0BE0E8FEEF16161706E80746
:100CA000F907C0F012161306E407F50798F0621B67
:100CB000730B840B950B39F40A2661F0232B242B3C
:100CC000252B21F408950A2609F4A140A6958FEF5B
:100CD000811D811D089597F99F6780E870E060E0AD
:100CE00008959FEF80EC089500240A9416161706C5
:100CF00018060906089500240A941216130614060D
:100D000005060895092E0394000C11F4882352F06F
:100D1000BB0F40F4BF2B11F460FF04C06F5F7F4F27
:100D20008F4F9F4F089557FD9058440F551F59F00E
:100D30005F3F71F04795880F97FB991F61F09F3FC8
:100D400079F087950895121613061406551FF2CFF1
:100D50004695F1DF08C0161617061806991FF1CF41
:100D600086957105610508940895E894BB27662768
:0C0D70007727CB0197F90895F894FFCF86
:100D7C000100000000000002000000004002000022
:0E0D8C00000001002C01E803010001006400DA
:00000001FF
