:100000000C9446000C9465000C9465000C946500FB
:100010000C9465000C9465000C9465000C946500CC
:100020000C9465000C9465000C9465000C946500BC
:100030000C9465000C94B0010C9465000C94650060
:100040000C9465000C9465000C9465000C9465009C
:100050000C9465000C9465000C9465000C9465008C
:100060000C9465000C9465000C9465000C9465007C
:100070000C9465000C9465000C9465000C9465006C
:100080000C9465000C9465000C94650011241FBE4F
:10009000CFEFD0E4DEBFCDBF11E0A0E0B1E0E6EDF0
:1000A000F6E000E00BBF02C007900D92A431B1074B
:1000B000D9F721E0A4E1B1E001C01D92A931B20756
:1000C000E1F70E947A020C9469030C940000CF932C
:1000D000DF93CDB7DEB781E00E948E000000DF9194
:1000E000CF910895CF93DF93CDB7DEB784E690E04C
:1000F0000E94320188E30E948E0086E00E948E00FA
:100100008FE00E948E0081E00E948E008AE090E0E5
:100110000E9432010000DF91CF910895CF93DF93C9
:100120001F92CDB7DEB789838BE290E02BE230E0FF
:10013000F90120812F7BFC01208388E290E0298156
:10014000FC0120838BE290E02BE230E0F90120817A
:100150002068FC01208300008BE290E02BE230E07D
:10016000F90120812F77FC01208382E090E00E943A
:10017000320100000F90DF91CF910895CF93DF936C
:100180001F92CDB7DEB789838BE290E02BE230E09F
:10019000F90120812064FC01208388E290E029811C
:1001A000FC0120838BE290E02BE230E0F90120811A
:1001B0002068FC01208300008BE290E02BE230E01D
:1001C000F90120812F77FC01208381E090E00E94DB
:1001D000320100000F90DF91CF910895CF93DF930C
:1001E00000D000D0CDB7DEB78A837C836B830E94BA
:1001F00067008A81898311C0898191E0980F998372
:100200000E941B018B819C819C012F5F3F4F3C838F
:100210002B83FC0180810E94BE008B819C81FC01AC
:100220008081882349F700000F900F900F900F9066
:10023000DF91CF910895CF93DF931F92CDB7DEB7B3
:1002400089838981813128F4898181580E948E00B7
:1002500004C0898181550E948E0000000F90DF91BB
:10026000CF910895CF93DF9300D000D000D0CDB7C9
:10027000DEB79E838D831A82198213C01C821B8273
:1002800006C000008B819C8101969C838B838B81AF
:100290009C8187309340ACF389819A8101969A833F
:1002A000898329813A818D819E812817390734F30A
:1002B000000026960FB6F894DEBF0FBECDBFDF91CB
:1002C000CF910895CF93DF93CDB7DEB781E890E06B
:1002D0002BE0FC01208388E890E02DE730E0FC0172
:1002E000318320838FE690E022E0FC01208384E8C4
:1002F00090E0FC0111821082809100019091010137
:10030000A0910201B0910301809315019093160111
:10031000A0931701B09318018FE590E02FE530E02E
:10032000F90120812068FC0120830000DF91CF913A
:100330000895CF93DF93CDB7DEB781E890E0FC015D
:1003400010820000DF91CF910895CF93DF93CDB756
:10035000DEB781E0809314010000DF91CF91089512
:100360001F920F9200905F000F92112400905B008B
:100370000F922F933F934F935F936F937F938F933E
:100380009F93AF93BF93EF93FF93CF93DF93CDB73B
:10039000DEB78091150190911601A0911701B091DF
:1003A00018010197A109B1098093150190931601D5
:1003B000A0931701B0931801809115019091160137
:1003C000A0911701B0911801892B8A2B8B2B91F4E6
:1003D0000E94A5018091000190910101A09102016C
:1003E000B09103018093150190931601A09317011A
:1003F000B09318010000DF91CF91FF91EF91BF9171
:10040000AF919F918F917F916F915F914F913F91AC
:100410002F910F9000925B000F9000925F000F9061
:100420001F901895CF93DF9300D000D0CDB7DEB7E3
:1004300069837A838B839C8389819A81AB81BC8118
:100440008093000190930101A0930201B0930301F6
:100450008091000190910101A0910201B0910301EE
:100460008093150190931601A0931701B093180182
:1004700000000F900F900F900F90DF91CF91089593
:10048000CF93DF9300D01F92CDB7DEB789837B83F4
:100490006A8389818A3031F48A819B81BC018DE035
:1004A0000E94400280EC90E0FC018081882F90E067
:1004B00080729927892BB1F386EC90E02981FC01A9
:1004C000208380E090E00F900F900F90DF91CF910C
:1004D0000895CF93DF93CDB7DEB78AE790E02AE7A0
:1004E00030E0F9012081206EFC0120830000DF91C3
:1004F000CF910895CF93DF9300D000D0CDB7DEB772
:1005000081E290E0FC01108282E290E02FEFFC019A
:1005100020838AE290E02FEFFC0120838BE290E0C1
:10052000FC01108284E290E02FEFFC01208385E241
:1005300090E0FC0110820E94690288E790E0FC01D3
:10054000808191819A8389838FEF90E0969587953A
:1005500096958795969587959C838B8329813A817B
:100560008B819C818217930750F085E290E021E017
:10057000FC0120838BE290E0FC011082DECF8B81B6
:100580009C819C01220F331F89819A81281739078A
:1005900050F085E290E023E0FC0120838BE290E0C4
:1005A000FC011082CACF2B813C81C901880F991FA1
:1005B000280F391F89819A812817390750F085E261
:1005C00090E027E0FC0120838BE290E0FC011082A8
:1005D000B4CF8B819C819C01220F331F220F331FCC
:1005E00089819A812817390750F085E290E02FE041
:1005F000FC0120838BE290E0FC0110829ECF2B81D6
:100600003C81C901880F991F880F991F280F391F36
:1006100089819A812817390758F085E290E02FE008
:10062000FC0120838BE290E022E0FC01208385CF57
:100630002B813C81C901880F991F820F931F880F5E
:10064000991F9C0189819A812817390758F085E202
:1006500090E02FE0FC0120838BE290E026E0FC019B
:1006600020836BCF2B813C81C901880F991F880F94
:10067000991F880F991FAC01421B530B9A01898166
:100680009A812817390758F085E290E02FE0FC01A5
:1006900020838BE290E02EE0FC0120834ECF8B8103
:1006A0009C819C01220F331F220F331F220F331F07
:1006B00089819A812817390708F43FCF85E290E0B5
:1006C0002FE0FC0120838BE290E02EE1FC012083EF
:0606D00034CFF894FFCFC7
:1006D60001000000000000020000000040020000CF
:0406E6000000FF0011
:00000001FF
