:100000000C9446000C9465000C9465000C946500FB
:100010000C9465000C9465000C9465000C946500CC
:100020000C9465000C9465000C9465000C946500BC
:100030000C9465000C94B0010C9465000C94650060
:100040000C9465000C9465000C9465000C9465009C
:100050000C9465000C9465000C9465000C9465008C
:100060000C9465000C9465000C9465000C9465007C
:100070000C9465000C9465000C9465000C9465006C
:100080000C9465000C9465000C94650011241FBE4F
:10009000CFEFD0E4DEBFCDBF11E0A0E0B1E0E4E9F6
:1000A000F8E000E00BBF02C007900D92AC33B1073F
:1000B000D9F721E0ACE3B1E001C01D92A734B2074B
:1000C000E1F70E9408040C9448040C940000CF93BC
:1000D000DF93CDB7DEB781E00E948E000000DF9194
:1000E000CF910895CF93DF93CDB7DEB784E690E04C
:1000F0000E94320188E30E948E0086E00E948E00FA
:100100008FE00E948E0081E00E948E008AE090E0E5
:100110000E9432010000DF91CF910895CF93DF93C9
:100120001F92CDB7DEB789838BE290E02BE230E0FF
:10013000F90120812F7BFC01208388E290E0298156
:10014000FC0120838BE290E02BE230E0F90120817A
:100150002068FC01208300008BE290E02BE230E07D
:10016000F90120812F77FC01208382E090E00E943A
:10017000320100000F90DF91CF910895CF93DF936C
:100180001F92CDB7DEB789838BE290E02BE230E09F
:10019000F90120812064FC01208388E290E029811C
:1001A000FC0120838BE290E02BE230E0F90120811A
:1001B0002068FC01208300008BE290E02BE230E01D
:1001C000F90120812F77FC01208381E090E00E94DB
:1001D000320100000F90DF91CF910895CF93DF930C
:1001E00000D000D0CDB7DEB78A837C836B830E94BA
:1001F00067008A81898311C0898191E0980F998372
:100200000E941B018B819C819C012F5F3F4F3C838F
:100210002B83FC0180810E94BE008B819C81FC01AC
:100220008081882349F700000F900F900F900F9066
:10023000DF91CF910895CF93DF931F92CDB7DEB7B3
:1002400089838981813128F4898181580E948E00B7
:1002500004C0898181550E948E0000000F90DF91BB
:10026000CF910895CF93DF9300D000D000D0CDB7C9
:10027000DEB79E838D831A82198213C01C821B8273
:1002800006C000008B819C8101969C838B838B81AF
:100290009C8187309340ACF389819A8101969A833F
:1002A000898329813A818D819E812817390734F30A
:1002B000000026960FB6F894DEBF0FBECDBFDF91CB
:1002C000CF910895CF93DF93CDB7DEB781E890E06B
:1002D0002BE0FC01208388E890E02DE730E0FC0172
:1002E000318320838FE690E022E0FC01208384E8C4
:1002F00090E0FC0111821082809100019091010137
:10030000A0910201B091030180933D0190933E01C1
:10031000A0933F01B09340018FE590E02FE530E0DE
:10032000F90120812068FC0120830000DF91CF913A
:100330000895CF93DF93CDB7DEB781E890E0FC015D
:1003400010820000DF91CF910895CF93DF93CDB756
:10035000DEB781E080933C010000DF91CF910895EA
:100360001F920F9200905F000F92112400905B008B
:100370000F922F933F934F935F936F937F938F933E
:100380009F93AF93BF93EF93FF93CF93DF93CDB73B
:10039000DEB780913D0190913E01A0913F01B09167
:1003A00040010197A109B10980933D0190933E015D
:1003B000A0933F01B093400180913D0190913E0197
:1003C000A0913F01B0914001892B8A2B8B2B91F496
:1003D0000E94A5018091000190910101A09102016C
:1003E000B091030180933D0190933E01A0933F01A2
:1003F000B09340010000DF91CF91FF91EF91BF9149
:10040000AF919F918F917F916F915F914F913F91AC
:100410002F910F9000925B000F9000925F000F9061
:100420001F901895CF93DF9300D000D0CDB7DEB7E3
:1004300069837A838B839C8389819A81AB81BC8118
:100440008093000190930101A0930201B0930301F6
:100450008091000190910101A0910201B0910301EE
:1004600080933D0190933E01A0933F01B0934001E2
:1004700000000F900F900F900F90DF91CF91089593
:10048000CF93DF9300D01F92CDB7DEB789837B83F4
:100490006A8389818A3031F48A819B81BC018DE035
:1004A0000E94400280EC90E0FC018081882F90E067
:1004B00080729927892BB1F386EC90E02981FC01A9
:1004C000208380E090E00F900F900F90DF91CF910C
:1004D0000895CF93DF931F92CDB7DEB780E290E00F
:1004E000FC018081882F90E08170992721E0892B81
:1004F00009F020E0298380914201909143018230EC
:10050000910509F449C08330910528F4009779F0EA
:10051000019779F19CC08430910509F474C084304E
:10052000910508F45DC0059709F480C090C085E28C
:1005300090E0FC0110821092440181E0809346011A
:1005400085E08093450181E090E00E941B0180914D
:100550004501882F90E0C0960E94BE0082E090E0A6
:100560000E941B0181E090E090934301809342013F
:1005700074C08981882349F084E090E0909343011E
:10058000809342011092440168C082E090E0909311
:1005900043018093420161C08981882351F084E046
:1005A00090E0909343018093420181E08093440165
:1005B00053C080914101813039F483E090E0909301
:1005C00043018093420148C080914101833009F08A
:1005D00043C081E090E090934301809342013CC08E
:1005E0008981882349F084E090E0909343018093CF
:1005F00042011092440131C082E090E090934301A7
:10060000809342012AC08981882349F084E090E0E8
:100610009093430180934201109246011EC085E0F1
:1006200090E0909343018093420117C08981882311
:1006300039F081E090E090934301809342010DC036
:1006400085E090E0909343018093420106C01092B0
:1006500043011092420101C000008091420190913B
:1006600043018230910509F445C08330910528F497
:10067000009779F0019721F1AEC08430910509F41B
:1006800066C08430910508F44AC0059709F49FC0FC
:10069000A2C085E290E0FC01108285E080934501D4
:1006A00081E090E00E941B0180914501882F90E03D
:1006B000C0960E94BE0082E090E00E941B01A3C091
:1006C0000E94670085E290E021E0FC01208381E048
:1006D0008093410181E090E00E941B0180914501DF
:1006E000882F90E0C0960E94BE0082E090E00E94B9
:1006F0001B0189C085E290E022E0FC01208381E0BB
:1007000090E00E941B0180914501882F90E0C096E7
:100710000E94BE0082E090E00E941B0174C085E24E
:1007200090E024E0FC01208383E08093410181E09C
:1007300090E00E941B0180914501882F90E0C096B7
:100740000E94BE0082E090E00E941B015CC080918C
:100750004601882309F456C080914401882351F052
:1007600080914501893030F4809145018F5F8093FD
:1007700045010DC080914401882349F480914501D1
:10078000882329F08091450181508093450181E0C3
:1007900090E00E941B0180914501882F90E0C09657
:1007A0000E94BE0082E090E00E941B018091450102
:1007B000893049F462E171E081E090E00E94EE004E
:1007C00085E08093450181E0809341011BC081E079
:1007D0008093460118C085E290E0FC01108285E01C
:1007E0008093450181E090E00E941B0180914501CA
:1007F000882F90E0C0960E94BE0082E090E00E94A8
:100800001B0101C0000000000F90DF91CF910895FF
:10081000CF93DF93CDB7DEB787E290E02FEFFC01F7
:10082000208388E290E0FC0110828AE290E02FEFC2
:10083000FC0120838BE290E0FC01108281E290E0D9
:10084000FC01108282E290E02FEFFC01208384E221
:1008500090E02FEFFC01208385E290E0FC01108204
:100860000E94720010924301109242016CE271E00A
:1008700080E090E00E9412020E9462010E946902E0
:10088000000080913C018823E1F310923C01F6CFF7
:04089000F894FFCF0A
:10089400010000000000000200000000400200000F
:1008A4000000594F552057494E212121205072658F
:1008B400737320413020746F20636F6E74696E759A
:0C08C4006520706C6179696E672E000081
:00000001FF
