:100000000C9446000C9465000C9465000C946500FB
:100010000C9465000C9465000C9465000C946500CC
:100020000C9465000C9465000C9465000C946500BC
:100030000C9465000C94B0010C9465000C94650060
:100040000C9465000C9465000C9465000C9465009C
:100050000C9465000C9465000C9465000C9465008C
:100060000C9465000C9465000C9465000C9465007C
:100070000C9465000C9465000C9465000C9465006C
:100080000C9465000C9465000C94650011241FBE4F
:10009000CFEFD0E4DEBFCDBF11E0A0E0B1E0E0E7FC
:1000A000FFE000E00BBF02C007900D92A637B1073A
:1000B000D9F721E0A6E7B1E001C01D92A53AB20749
:1000C000E1F70E94F5050C94B6070C940000CF935D
:1000D000DF93CDB7DEB781E00E948E000000DF9194
:1000E000CF910895CF93DF93CDB7DEB784E690E04C
:1000F0000E94320188E30E948E0086E00E948E00FA
:100100008FE00E948E0081E00E948E008AE090E0E5
:100110000E9432010000DF91CF910895CF93DF93C9
:100120001F92CDB7DEB789838BE290E02BE230E0FF
:10013000F90120812F7BFC01208388E290E0298156
:10014000FC0120838BE290E02BE230E0F90120817A
:100150002068FC01208300008BE290E02BE230E07D
:10016000F90120812F77FC01208382E090E00E943A
:10017000320100000F90DF91CF910895CF93DF936C
:100180001F92CDB7DEB789838BE290E02BE230E09F
:10019000F90120812064FC01208388E290E029811C
:1001A000FC0120838BE290E02BE230E0F90120811A
:1001B0002068FC01208300008BE290E02BE230E01D
:1001C000F90120812F77FC01208381E090E00E94DB
:1001D000320100000F90DF91CF910895CF93DF930C
:1001E00000D000D0CDB7DEB78A837C836B830E94BA
:1001F00067008A81898311C0898191E0980F998372
:100200000E941B018B819C819C012F5F3F4F3C838F
:100210002B83FC0180810E94BE008B819C81FC01AC
:100220008081882349F700000F900F900F900F9066
:10023000DF91CF910895CF93DF931F92CDB7DEB7B3
:1002400089838981813128F4898181580E948E00B7
:1002500004C0898181550E948E0000000F90DF91BB
:10026000CF910895CF93DF9300D000D000D0CDB7C9
:10027000DEB79E838D831A82198213C01C821B8273
:1002800006C000008B819C8101969C838B838B81AF
:100290009C8187309340ACF389819A8101969A833F
:1002A000898329813A818D819E812817390734F30A
:1002B000000026960FB6F894DEBF0FBECDBFDF91CB
:1002C000CF910895CF93DF93CDB7DEB781E890E06B
:1002D0002BE0FC01208388E890E02DE730E0FC0172
:1002E000318320838FE690E022E0FC01208384E8C4
:1002F00090E0FC0111821082809100019091010137
:10030000A0910201B091030180937701909378014D
:10031000A0937901B0937A018FE590E02FE530E06A
:10032000F90120812068FC0120830000DF91CF913A
:100330000895CF93DF93CDB7DEB781E890E0FC015D
:1003400010820000DF91CF910895CF93DF93CDB756
:10035000DEB781E0809376010000DF91CF910895B0
:100360001F920F9200905F000F92112400905B008B
:100370000F922F933F934F935F936F937F938F933E
:100380009F93AF93BF93EF93FF93CF93DF93CDB73B
:10039000DEB78091770190917801A0917901B091B9
:1003A0007A010197A109B1098093770190937801AF
:1003B000A0937901B0937A018091770190917801AF
:1003C000A0917901B0917A01892B8A2B8B2B91F422
:1003D0000E94A5018091000190910101A09102016C
:1003E000B09103018093770190937801A0937901F4
:1003F000B0937A010000DF91CF91FF91EF91BF910F
:10040000AF919F918F917F916F915F914F913F91AC
:100410002F910F9000925B000F9000925F000F9061
:100420001F901895CF93DF9300D000D0CDB7DEB7E3
:1004300069837A838B839C8389819A81AB81BC8118
:100440008093000190930101A0930201B0930301F6
:100450008091000190910101A0910201B0910301EE
:100460008093770190937801A0937901B0937A01FA
:1004700000000F900F900F900F90DF91CF91089593
:10048000CF93DF9300D01F92CDB7DEB789836A8305
:100490004B838B81882371F08A81282F30E081E0A3
:1004A00090E002C0880F991F2A95E2F7982F898162
:1004B000892B0EC08A81282F30E081E090E002C0B5
:1004C000880F991F2A95E2F7982F909589818923A3
:1004D0000F900F900F90DF91CF910895CF93DF93FE
:1004E00000D0CDB7DEB789836A838A81282F30E0B8
:1004F00081E090E002C0880F991F2A95E2F7982FBB
:10050000898189230F900F90DF91CF9108950F93E8
:100510001F93CF93DF93CDB7DEB702E210E040E048
:1005200064E08FEF0E944002F8018083000080E2C7
:1005300090E0FC018081809560E00E946E0288233B
:1005400011F081E3D3C080E290E0FC0180818095CE
:1005500061E00E946E02882311F084E3C7C080E24C
:1005600090E0FC018081809562E00E946E02882309
:1005700011F087E3BBC080E290E0FC0180818095B0
:1005800063E00E946E02882311F08AE2AFC002E2AB
:1005900010E040E065E08FEF0E944002F8018083A8
:1005A000000080E290E0FC018081809560E00E9484
:1005B0006E02882311F082E399C080E290E0FC0192
:1005C0008081809561E00E946E02882311F085E3AE
:1005D0008DC080E290E0FC018081809562E00E9405
:1005E0006E02882311F088E381C080E290E0FC0174
:1005F0008081809563E00E946E02882311F080E381
:1006000075C002E210E040E066E08FEF0E94400219
:10061000F8018083000080E290E0FC0180818095F9
:1006200060E00E946E02882311F083E35FC080E2E5
:1006300090E0FC018081809561E00E946E02882339
:1006400011F086E353C080E290E0FC018081809548
:1006500062E00E946E02882311F089E347C080E2C5
:1006600090E0FC018081809563E00E946E02882307
:1006700011F083E23BC002E210E040E067E08FEF60
:100680000E944002F8018083000080E290E0FC01BB
:100690008081809560E00E946E02882311F081E4E1
:1006A00025C080E290E0FC018081809561E00E949D
:1006B0006E02882311F082E419C080E290E0FC0110
:1006C0008081809562E00E946E02882311F083E4AD
:1006D0000DC080E290E0FC018081809563E00E9483
:1006E0006E02882311F084E401C080E0DF91CF9195
:1006F0001F910F910895CF93DF93CDB7DEB72C975D
:100700000FB6F894DEBF0FBECDBF6D837E838F839F
:10071000988729873A874B875C878D819E81AF8137
:10072000B88529853A854B855C85BC01CD010E9441
:100730009407DC01CB0189839A83AB83BC838981D5
:100740009A81AB81BC81892B8A2B8B2B29F48985DB
:100750009A85AB85BC8511C089859A85AB85BC859A
:100760008D839E83AF83B88789819A81AB81BC8159
:1007700089879A87AB87BC87D0CFBC01CD012C96E7
:100780000FB6F894DEBF0FBECDBFDF91CF910895B5
:10079000CF93DF9300D01F92CDB7DEB789837B83E1
:1007A0006A8389818A3031F48A819B81BC018DE022
:1007B0000E94C80380EC90E0FC018081882F90E0CB
:1007C00080729927892BB1F386EC90E02981FC0196
:1007D000208380E090E00F900F900F90DF91CF91F9
:1007E0000895CF93DF931F92CDB7DEB780E290E0FC
:1007F000FC0180818095847089838091A301909110
:10080000A4018130910581F08130910518F00297A3
:1008100049F139C081E090E09093A4018093A30155
:1008200081E080939D0133C089818823A1F082E01B
:1008300090E09093A4018093A30180919D01882F63
:1008400090E08170992721E0892B09F020E0822F28
:1008500080939D011CC081E090E09093A40180935F
:10086000A30115C08981882339F082E090E090933C
:10087000A4018093A3010BC081E090E09093A401B8
:100880008093A30104C01092A4011092A30180914F
:10089000A3019091A4018130910531F0813091053F
:1008A00028F0029729F005C0000003C0000001C035
:1008B00000008091A3019091A4010F90DF91CF914E
:1008C0000895CF93DF931F92CDB7DEB780E290E01B
:1008D000FC01808180958370898380919E01909135
:1008E0009F018130910581F08130910518F00297C8
:1008F00061F13FC081E090E090939F0180939E0161
:1009000081E18093A20139C08981813051F482E074
:1009100090E090939F0180939E0181E08093A201DB
:100920002CC08981823051F482E090E090939F0145
:1009300080939E0181E18093A2011FC081E090E03D
:1009400090939F0180939E0118C08981813019F096
:100950008981823039F482E090E090939F01809306
:100960009E010BC081E090E090939F0180939E01D7
:1009700004C010929F0110929E0180919E0190915F
:100980009F018130910531F08130910528F0029767
:1009900029F005C0000003C0000001C000008091E4
:1009A0009E0190919F010F90DF91CF910895CF9379
:1009B000DF93CDB7DEB7CF55D1090FB6F894DEBFC0
:1009C0000FBECDBF81E1E2E1F1E0DE0113960190BF
:1009D0000D928A95E1F781E1E3E2F1E0DE015496C0
:1009E00001900D928A95E1F781E2E4E3F1E0DE0106
:1009F000959601900D928A95E1F7CE018A5B9F4F03
:100A00002AE1E5E5F1E0DC0101900D922A95E1F79C
:100A10008091A0019091A10181309105B9F08130C0
:100A2000910520F0029709F44CC062C081E090E08B
:100A30009093A1018093A00110927B01CE01859635
:100A4000BC0181E090E00E94EE0056C080917B01E5
:100A5000882F90E09E012D5F3F4F820F931FFC0176
:100A600080818E3521F48091A201813089F08091BE
:100A70007B01882F90E09E012C5E3F4F820F931FD9
:100A8000FC0180818E35B1F48091A201813191F415
:100A900082E090E09093A1018093A00181E0809397
:100AA0009D01CE018A5B9F4FBC0181E090E00E94D6
:100AB000EE0022C081E090E09093A1018093A0011C
:100AC0001BC080919D01882339F082E090E09093D3
:100AD000A1018093A00110C081E090E09093A1015A
:100AE0008093A00110927B0181E18093A20104C058
:100AF0001092A1011092A0018091A0019091A101FA
:100B00008130910541F08130910508F45BC0029776
:100B100009F45AC05CC080919D01882309F056C039
:100B20001A82198239C089819A8101960E941B011B
:100B300080917B01282F30E089819A81820F931F59
:100B40008F7099279E012D5F3F4F820F931FFC01ED
:100B50008081882F90E00E94BE0089819A81419611
:100B60000E941B0180917B01282F30E089819A81AE
:100B7000820F931F8F7099279E012C5E3F4F820F2B
:100B8000931FFC018081882F90E00E94BE00898124
:100B90009A8101969A83898389819A81409718F274
:100BA00080917B018F3021F080917B018F5F01C0AC
:100BB00080E080937B018091A201882F90E00E94C9
:100BC0001B0104C0000003C0000001C000008091B0
:100BD000A0019091A101C15ADF4F0FB6F894DEBF7A
:100BE0000FBECDBFDF91CF9108950F931F93CF9389
:100BF000DF93CDB7DEB761970FB6F894DEBF0FBEB7
:100C0000CDBF87E290E02FEFFC01208388E290E0E7
:100C1000FC0110828AE290E02FEFFC0120838BE23E
:100C200090E0FC01108281E290E0FC01108282E2FF
:100C300090E02FEFFC0120830E94720086E0EFE637
:100C4000F1E0DE011C9601900D928A95E1F783E0B8
:100C500090E09A8789871B868B8580937C0184E648
:100C600090E0A0E0B0E080937D0190937E01A0939E
:100C70007F01B093800180917D0190917E01A091D0
:100C80007F01B09180018093810190938201A093B4
:100C90008301B093840181EF93E090938601809368
:100CA00085018B858093870184E690E0A0E0B0E029
:100CB0008093880190938901A0938A01B0938B015E
:100CC0008091880190918901A0918A01B0918B0156
:100CD00080938C0190938D01A0938E01B0938F012E
:100CE00081E694E090939101809390018B858093AD
:100CF00092018AEF90E0A0E0B0E08093930190939E
:100D00009401A0939501B0939601809193019091E5
:100D10009401A0919501B0919601809397019093D1
:100D20009801A0939901B0939A0187ED94E0909374
:100D30009C0180939B018C859D85FC018181928122
:100D4000A381B48189839A83AB83BC8381E090E0E3
:100D50009E838D8325C08D819E81880F991F9E0162
:100D60002F5F3F4F820F931F0B96FC018081918173
:100D7000FC01218132814381548189819A81AB8137
:100D8000BC81BC01CD010E947B03DC01CB018983C6
:100D90009A83AB83BC838D819E8101969E838D83D4
:100DA0002D813E8189859A8528173907A0F289818E
:100DB0009A81AB81BC81BC01CD010E9412020E94CC
:100DC000620118861F82A0C08F819885880F991FA5
:100DD0009E012F5F3F4F820F931F0B96FC01808176
:100DE0009181FC0125813681478150858F819885CD
:100DF000880F991FBE016F5F7F4F860F971F0B965D
:100E0000FC0180819181FC0181819281A381B48167
:100E1000281739074A075B0709F045C08F81988575
:100E2000880F991F9E012F5F3F4F820F931F0B96D4
:100E3000FC01008111818F819885880F991F9E0187
:100E40002F5F3F4F820F931F0B96FC018081918192
:100E5000FC01218532858F819885880F991FAE010D
:100E60004F5F5F4F840F951F0B96FC01808191812E
:100E7000FC018081082E000C990BF9010995F801FD
:100E800080838F819885880F991F9E012F5F3F4F28
:100E9000820F931F0B96FC0180819181FC011582CA
:100EA0001682178210868F819885880F991F9E0160
:100EB0002F5F3F4F820F931F0B96FC016081718162
:100EC0008F819885880F991F9E012F5F3F4F820F5A
:100ED000931F0B96FC0180819181FC012581368155
:100EE0004781508589819A81AB81BC81820F931F94
:100EF000A41FB51FFB0185839683A783B0878F81CD
:100F00009885019698878F832F81388589859A8562
:100F10002817390708F458CF0000809176018823FC
:100F2000E1F3109276014DCFA1E21A2EAA1BBB1B52
:100F3000FD010DC0AA1FBB1FEE1FFF1FA217B307A5
:100F4000E407F50720F0A21BB30BE40BF50B661FBB
:100F5000771F881F991F1A9469F76095709580957F
:100F600090959B01AC01BD01CF010895F894FFCF8E
:100F7000010000000000000200000000C8030000A3
:100F800000005E2020202020202020202020202063
:100F900020200020202020205E2020202020202033
:100FA00020202000504C415920444F4447452054B4
:100FB0004845202043415245543F20505245535309
:100FC0002041332000594F55204C4F5345212020BC
:100FD0002020202020484148414841484121007CB0
:060FE000018701920100EF
:00000001FF
