:100000000C9446000C9465000C9465000C946500FB
:100010000C9465000C9465000C9465000C946500CC
:100020000C9465000C9465000C9465000C946500BC
:100030000C9465000C94B5000C9465000C9465005C
:100040000C9465000C9465000C9465000C9465009C
:100050000C9465000C9465000C9465000C9465008C
:100060000C9465000C9465000C9465000C9465007C
:100070000C9465000C9465000C9465000C9465006C
:100080000C9465000C9465000C94650011241FBE4F
:10009000CFEFD0E4DEBFCDBF11E0A0E0B1E0EEEDE8
:1000A000F5E000E00BBF02C007900D92A231B1074E
:1000B000D9F721E0A2E1B1E001C01D92AA31B20757
:1000C000E1F70E94C1020C94ED020C940000CF9362
:1000D000DF93CDB7DEB781E890E02BE0FC01208311
:1000E00088E890E02DE730E0FC01318320838FE643
:1000F00090E022E0FC01208384E890E0FC01118282
:1001000010828091000190910101A0910201B091B3
:1001100003018093130190931401A0931501B093F0
:1001200016018FE590E02FE530E0F901208120688D
:10013000FC0120830000DF91CF910895CF93DF93DE
:10014000CDB7DEB781E890E0FC0110820000DF91BE
:10015000CF910895CF93DF93CDB7DEB781E0809341
:1001600012010000DF91CF9108951F920F9200902D
:100170005F000F92112400905B000F922F933F932A
:100180004F935F936F937F938F939F93AF93BF939F
:10019000EF93FF93CF93DF93CDB7DEB78091130139
:1001A00090911401A0911501B09116010197A10938
:1001B000B1098093130190931401A0931501B0939A
:1001C00016018091130190911401A0911501B09135
:1001D0001601892B8A2B8B2B91F40E94AA00809107
:1001E000000190910101A0910201B091030180935F
:1001F000130190931401A0931501B0931601000010
:10020000DF91CF91FF91EF91BF91AF919F918F912E
:100210007F916F915F914F913F912F910F9000923D
:100220005B000F9000925F000F901F901895CF9386
:10023000DF9300D000D0CDB7DEB769837A838B839C
:100240009C8389819A81AB81BC81809300019093CA
:100250000101A0930201B0930301809100019091EC
:100260000101A0910201B0910301809313019093C9
:100270001401A0931501B093160100000F900F9088
:100280000F900F90DF91CF910895CF93DF9300D01F
:100290001F92CDB7DEB789837B836A8389818A30D9
:1002A00031F48A819B81BC018DE00E94450180EC84
:1002B00090E0FC018081882F90E080729927892B43
:1002C000B1F386EC90E02981FC01208380E090E08E
:1002D0000F900F900F90DF91CF910895CF93DF9300
:1002E0001F92CDB7DEB780E290E0FC01808180955F
:1002F0008370898380911801909119018230910552
:1003000009F441C08330910528F4009759F0019712
:10031000A9F0BEC08330910509F465C0049709F4C3
:1003200092C0B6C085E290E027E0FC01208381E026
:1003300090E09093190180931801AEC089818330B9
:1003400039F484E090E09093190180931801A4C0DF
:100350008981823039F483E090E090931901809391
:1003600018019AC08981813039F482E090E090933D
:1003700019018093180190C081E090E090931901D9
:100380008093180189C08981833039F484E090E03A
:1003900090931901809318011AC08981823039F431
:1003A00083E090E0909319018093180110C0898137
:1003B000813039F482E090E0909319018093180124
:1003C00006C081E090E09093190180931801898123
:1003D000813031F4809117018F5F809317015CC0E9
:1003E0001092170159C08981833039F484E090E07C
:1003F00090931901809318011AC08981823039F4D1
:1004000083E090E0909319018093180110C08981D6
:10041000813039F482E090E09093190180931801C3
:1004200006C081E090E090931901809318018981C2
:10043000823031F4809117018F5F809317012CC0B7
:100440001092170129C08981833039F484E090E04B
:1004500090931901809318011FC08981823039F46B
:1004600083E090E0909319018093180115C0898171
:10047000813039F482E090E0909319018093180163
:100480000BC081E090E0909319018093180104C0A3
:100490001092190110921801809118019091190180
:1004A00082309105B1F08330910530F4009759F016
:1004B000019709F45CC055C08330910561F1049740
:1004C00009F44AC04EC085E290E027E0FC01208399
:1004D00053C083E290E0FC018081893008F049C07C
:1004E000909117018DEC989F812D1124869586950A
:1004F0008695880F282F220F220F820FF92FF81BC5
:100500008F2F8823B1F585E290E0FC0120812F5FD9
:10051000FC0120832EC083E290E0FC0180818823CF
:1005200051F1909117018DEC989F812D11248695A2
:1005300086958695880F282F220F220F820FF92F7C
:10054000F81B8F2F8823B9F485E290E0FC0120810D
:100550002150FC0120830FC085E290E0FC01108255
:100560000BC085E290E027E0FC01208305C000007D
:1005700003C0000001C0000000000F90DF91CF9188
:100580000895CF93DF93CDB7DEB781E290E0FC0111
:10059000108282E290E02FEFFC01208384E290E061
:1005A0002FEFFC01208385E290E0FC011082109285
:1005B00019011092180164E670E080E090E00E945A
:1005C00017010E9467000E946E01000080911201D5
:0E05D0008823E1F310921201F6CFF894FFCFCA
:1005DE0001000000000000020000000045010000C4
:0205EE0000000B
:00000001FF
