:100000000C9446000C9465000C9465000C946500FB
:100010000C9465000C9465000C9465000C946500CC
:100020000C9465000C9465000C9465000C946500BC
:100030000C9465000C94B0010C9465000C94650060
:100040000C9465000C9465000C9465000C9465009C
:100050000C9465000C9465000C9465000C9465008C
:100060000C9465000C9465000C9465000C9465007C
:100070000C9465000C9465000C9465000C9465006C
:100080000C9465000C9465000C94650011241FBE4F
:10009000CFEFD0E4DEBFCDBF11E0A0E0B1E0E6E0FD
:1000A000FCE000E00BBF02C007900D92A231B10747
:1000B000D9F721E0A2E1B1E001C01D92AE31B20753
:1000C000E1F70E943F040C9401060C940000CF93CA
:1000D000DF93CDB7DEB781E00E948E000000DF9194
:1000E000CF910895CF93DF93CDB7DEB784E690E04C
:1000F0000E94320188E30E948E0086E00E948E00FA
:100100008FE00E948E0081E00E948E008AE090E0E5
:100110000E9432010000DF91CF910895CF93DF93C9
:100120001F92CDB7DEB789838BE290E02BE230E0FF
:10013000F90120812F7BFC01208388E290E0298156
:10014000FC0120838BE290E02BE230E0F90120817A
:100150002068FC01208300008BE290E02BE230E07D
:10016000F90120812F77FC01208382E090E00E943A
:10017000320100000F90DF91CF910895CF93DF936C
:100180001F92CDB7DEB789838BE290E02BE230E09F
:10019000F90120812064FC01208388E290E029811C
:1001A000FC0120838BE290E02BE230E0F90120811A
:1001B0002068FC01208300008BE290E02BE230E01D
:1001C000F90120812F77FC01208381E090E00E94DB
:1001D000320100000F90DF91CF910895CF93DF930C
:1001E00000D000D0CDB7DEB78A837C836B830E94BA
:1001F00067008A81898311C0898191E0980F998372
:100200000E941B018B819C819C012F5F3F4F3C838F
:100210002B83FC0180810E94BE008B819C81FC01AC
:100220008081882349F700000F900F900F900F9066
:10023000DF91CF910895CF93DF931F92CDB7DEB7B3
:1002400089838981813128F4898181580E948E00B7
:1002500004C0898181550E948E0000000F90DF91BB
:10026000CF910895CF93DF9300D000D000D0CDB7C9
:10027000DEB79E838D831A82198213C01C821B8273
:1002800006C000008B819C8101969C838B838B81AF
:100290009C8187309340ACF389819A8101969A833F
:1002A000898329813A818D819E812817390734F30A
:1002B000000026960FB6F894DEBF0FBECDBFDF91CB
:1002C000CF910895CF93DF93CDB7DEB781E890E06B
:1002D0002BE0FC01208388E890E02DE730E0FC0172
:1002E000318320838FE690E022E0FC01208384E8C4
:1002F00090E0FC0111821082809100019091010137
:10030000A0910201B0910301809313019093140115
:10031000A0931501B09316018FE590E02FE530E032
:10032000F90120812068FC0120830000DF91CF913A
:100330000895CF93DF93CDB7DEB781E890E0FC015D
:1003400010820000DF91CF910895CF93DF93CDB756
:10035000DEB781E0809312010000DF91CF91089514
:100360001F920F9200905F000F92112400905B008B
:100370000F922F933F934F935F936F937F938F933E
:100380009F93AF93BF93EF93FF93CF93DF93CDB73B
:10039000DEB78091130190911401A0911501B091E5
:1003A00016010197A109B1098093130190931401DB
:1003B000A0931501B093160180911301909114013F
:1003C000A0911501B0911601892B8A2B8B2B91F4EA
:1003D0000E94A5018091000190910101A09102016C
:1003E000B09103018093130190931401A093150120
:1003F000B09316010000DF91CF91FF91EF91BF9173
:10040000AF919F918F917F916F915F914F913F91AC
:100410002F910F9000925B000F9000925F000F9061
:100420001F901895CF93DF9300D000D0CDB7DEB7E3
:1004300069837A838B839C8389819A81AB81BC8118
:100440008093000190930101A0930201B0930301F6
:100450008091000190910101A0910201B0910301EE
:100460008093130190931401A0931501B09316018A
:1004700000000F900F900F900F90DF91CF91089593
:10048000CF93DF9300D01F92CDB7DEB789837B83F4
:100490006A8389818A3031F48A819B81BC018DE035
:1004A0000E94400280EC90E0FC018081882F90E067
:1004B00080729927892BB1F386EC90E02981FC01A9
:1004C000208380E090E00F900F900F90DF91CF910C
:1004D00008950F931F93CF93DF9300D000D0CDB733
:1004E000DEB769837A838B839C8380911701909117
:1004F0001801A0911901B0911A019C01AD01698107
:100500007A818B819C810E946D04882309F477C0D5
:1005100020E030E0A90169817A818B819C810E9471
:100520006D04882351F481E990E021E930E0F9017C
:1005300020812870FC01208309C081E990E021E935
:1005400030E0F90120812360FC01208328E539E3B4
:1005500044E75FE369817A818B819C810E946D040D
:10056000882344F488E990E02FEF3FEFFC013183CA
:10057000208334C020E034E244EF56E469817A817C
:100580008B819C810E948F05181634F488E990E0D5
:10059000FC011182108222C008E910E020E030E066
:1005A00040E053E469817A818B819C810E949405AB
:1005B000DC01CB019C01AD0160E074E284EF9AE4C0
:1005C0000E947204DC01CB01BC01CD010E94E40455
:1005D000DC01CB010197F8019183808384E990E0ED
:1005E000FC011182108289819A81AB81BC81809348
:1005F000170190931801A0931901B0931A010000FC
:100600000F900F900F900F90DF91CF911F910F914E
:100610000895CF93DF93CDB7DEB780E990E020E473
:10062000FC01208381E990E02BE0FC01208360E065
:1006300070E0CB010E9469020000DF91CF91089524
:10064000CF93DF93CDB7DEB780E990E0FC01108255
:1006500081E990E0FC0110820000DF91CF910895C4
:10066000CF93DF931F92CDB7DEB780E290E0FC011D
:100670008081882F90E08170992721E0892B09F0F3
:1006800020E0298380911C0190911D01813091050A
:10069000B9F08130910530F08230910511F1039766
:1006A00091F142C060E070E0CB010E9469021092BB
:1006B0001B0181E090E090931D0180931C0138C0E4
:1006C0008981813039F482E090E090931D0180931C
:1006D0001C012EC081E090E090931D0180931C01CD
:1006E00027C080911B01823338F482E090E0909320
:1006F0001D0180931C011CC083E090E090931D01BC
:1007000080931C0115C08981882339F083E090E033
:1007100090931D0180931C010BC081E090E09093A9
:100720001D0180931C0104C010921D0110921C0138
:1007300080911C0190911D018130910509F499C0AF
:100740008130910538F08230910551F0039709F41A
:1007500083C08AC060E070E0CB010E9469028AC059
:1007600080911B01853038F460E070E08CED93E4FB
:100770000E9469026BC080911B018A3038F461E7E6
:100780007DE98EEA93E40E94690260C080911B01BA
:100790008F3038F460E070E084EC93E40E946902EA
:1007A00055C080911B01823130F460E070E0CB01D4
:1007B0000E9469024BC080911B01873138F460E0D0
:1007C00070E084EC93E40E94690240C080911B01B8
:1007D0008C3138F464EA70ED84EA93E40E94690293
:1007E00035C080911B01813238F461E77DE98EEAE2
:1007F00093E40E9469022AC080911B01843230F484
:1008000060E070E0CB010E94690220C080911B0172
:10081000893238F461E77DE98EEA93E40E94690247
:1008200015C080911B018D3238F46BE774ED82E9BD
:1008300093E40E9469020AC080911B01823330F464
:1008400064EA70ED82E893E40E94690280911B01E2
:100850008F5F80931B010EC010921B0160E070E05F
:10086000CB010E94690206C010921D0110921C016A
:1008700001C0000000000F90DF91CF910895CF9349
:10088000DF93CDB7DEB781E290E0FC01108282E217
:1008900090E02FEFFC01208384E290E02FEFFC0139
:1008A000208385E290E0FC01108210921D011092DD
:1008B0001C0164E670E080E090E00E9412020E9459
:1008C00062010E9409030E9430030000809112011E
:1008D0008823E1F310921201F6CF0E941A0508F462
:1008E00081E008950E9486040C9455050E944E05EF
:1008F00058F00E94470540F029F45F3F29F00C941E
:100900003E0551110C9489050C9444050E9466051E
:1009100068F39923B1F3552391F3951B550BBB272E
:10092000AA2762177307840738F09F5F5F4F220F73
:10093000331F441FAA1FA9F335D00E2E3AF0E0E86A
:1009400032D091505040E695001CCAF72BD0FE2FB4
:1009500029D0660F771F881FBB1F26173707480748
:10096000AB07B0E809F0BB0B802DBF01FF27935800
:100970005F4F3AF09E3F510578F00C943E050C9481
:1009800089055F3FE4F3983ED4F3869577956795A4
:10099000B795F7959F5FC9F7880F911D9695879535
:1009A00097F90895E1E0660F771F881FBB1F621754
:1009B00073078407BA0720F0621B730B840BBA0B12
:1009C000EE1F88F7E09508950E94EB046894B1113A
:1009D0000C94890508950E946E0588F09F5798F041
:1009E000B92F9927B751B0F0E1F0660F771F881F34
:1009F000991F1AF0BA95C9F714C0B13091F00E944E
:100A00008805B1E008950C948805672F782F882712
:100A1000B85F39F0B93FCCF3869577956795B39574
:100A2000D9F73EF490958095709561957F4F8F4FE3
:100A30009F4F0895990F0008550FAA0BE0E8FEEFAD
:100A400016161706E807F907C0F012161306E40792
:100A5000F50798F0621B730B840B950B39F40A268B
:100A600061F0232B242B252B21F408950A2609F469
:100A7000A140A6958FEF811D811D089597F99F676D
:100A800080E870E060E008959FEF80EC0895002416
:100A90000A941616170618060906089500240A94E3
:100AA00012161306140605060895092E0394000C69
:100AB00011F4882352F0BB0F40F4BF2B11F460FFF8
:100AC00004C06F5F7F4F8F4F9F4F089557FD905821
:100AD000440F551F59F05F3F71F04795880F97FB02
:100AE000991F61F09F3F79F08795089512161306BC
:100AF0001406551FF2CF4695F1DF08C016161706EB
:100B00001806991FF1CF869571056105089408951F
:100B1000E894BB2766277727CB0197F908950E94B1
:100B20001A0508F48FEF08950E94A7050C94550547
:100B30000E94470538F00E944E0520F0952311F0E1
:100B40000C943E050C94440511240C9489050E94D4
:100B5000660570F3959FC1F3950F50E0551F629F96
:100B6000F001729FBB27F00DB11D639FAA27F00D06
:100B7000B11DAA1F649F6627B00DA11D661F829F2D
:100B80002227B00DA11D621F739FB00DA11D621F12
:100B9000839FA00D611D221F749F3327A00D611D2F
:100BA000231F849F600D211D822F762F6A2F112411
:100BB0009F5750409AF0F1F088234AF0EE0FFF1F44
:100BC000BB1F661F771F881F91505040A9F79E3F9B
:100BD000510580F00C943E050C9489055F3FE4F3C9
:100BE000983ED4F3869577956795B795F795E795F1
:100BF0009F5FC1F7FE2B880F911D9695879597F9FA
:060C00000895F894FFCFF7
:100C06000100000000000002000000004002000099
:020C16000000DC
:00000001FF
